:04095D00020800404C
:10092200D3EF9400EE940040147D0B7C00ED1D701B
:0D093200011CED4C70F7EF1F70E61E80E316
:01093F002295
:10094000AB07AA06E4F5A0AF03AE0212092275A018
:0D09500001C3E5099BFFE5089AFE0209229C
:10080000900000C3E5829509E58395085038E4F52A
:100810000AF50BC3E5099582FFE5089583FEEF789D
:1008200002CEC313CE13D8F9FFC3E50B9FE50A9E92
:100830005011AF82AE83120940050BE50B70D40551
:100840000A80D0A380BD850883850982D3E5829480
:1008500000E583940040A9E4F50AF50BC3E509958A
:1008600082FFE5089583FEEF7802CEC313CE13D83E
:10087000F9FFC3E50B9FE50A9E5011AF82AE8312CC
:100880000940050BE50B70D4050A80D0E58215827E
:0608900070BA158380B66A
:030000000208965D
:0C089600787FE4F6D8FD75810B0208DDC8
:1008A200020800E493A3F8E493A34003F68001F264
:1008B20008DFF48029E493A3F85407240CC8C33357
:1008C200C4540F4420C8834004F456800146F6DF26
:1008D200E4800B010204081020408090095DE47E50
:1008E200019360BCA3FF543F30E509541FFEE4931B
:1008F200A360010ECF54C025E060A840B8E493A3E2
:10090200FAE493A3F8E493A3C8C582C8CAC583CA0C
:10091200F0A3C8C582C8CAC583CADFE9DEE780BEC4
:010961000095
:00000001FF
