:10009E00C0F9A4B0999282F880908883C6A1868E0A
:0100AE000051
:0B00BB00EF1FAC0670011E4C70F62217
:10000300E4F50975900FE590640F605D7FE87E036A
:100013001200BBE590640F605075900FAF90EF2412
:10002300F5601024FE601114601324077012E4F5C8
:1000330008800D75080180087508028003750803A0
:100043007590F0AF90EF2450601124E0601124F01C
:10005300601124707013850808800E740480067480
:10006300088002740C2508F508C3E509648094B27E
:100073005011E59064F0600B7F647E001200BB05B5
:030083000980E60B
:010086002257
:10008700120003E50890009E9370047F0180027FB1
:0700970000EFF4F58080E9A1
:030000000200AF4C
:0C00AF00787FE4F6D8FD75810902008717
:00000001FF
