:0D1DD70048656C6C6F20576F726C642100C2
:021DF400C1002C
:100E6300E4900005F0A3F0A3747FF0A3743FF0E4D3
:100E7300A3F0A3F0A3F01216F3121CD87B147D1E6B
:100E83007F2B12151C900015E4F0A37415F07B5D05
:100E93007A007D0A7C007F2B7E0012085B7F0A7E2E
:100EA30000121D51900015E4F0A37427F07B5D7AC6
:100EB300007D327C007F2B7E0012085B900018E4DB
:100EC300F0A3741EF0FB7D557F411217CF7B0A7D83
:100ED3001E7F5D12151C7F0A7E00121D517BFF7A57
:100EE3001D79D79000147408F07D327F14121BF71C
:100EF300900012743EF0A3E4F0A37405F07B7E7DB2
:100F0300017F01121ACC7F1E7E00121D51121CD8C4
:100F1300900018E4F0A37405F07B327D807F1912F2
:100F230017CF900018E4F0A37405F07B187D32E42A
:100F3300FF1213907B087D207F0A12151C7B087D0E
:100F4300307F0A12151C900000741CF0900000E022
:100F5300FFC394814003020FFFEFC394804002D28A
:100F630000300034EF24FD900001F0900000E024F5
:100F730001FFE433FEA3E0FBC39FEE6480F87480BB
:100F8300985015E4900012F0A3F07D32FF12103E4A
:100F9300900001E004F080D3121C577C007D3012D6
:100FA30016A5AF05900002EFF0FB7A0090001374D2
:100FB30002F0A37410F0E4FDFF12196E900000E03C
:100FC300FB24FDFFE434FFFEC007900003E0FD7C3B
:100FD300007A00900002E0FF900015E4F0A3EFF028
:100FE300D00712085B900002E0A3F07F017E00129D
:100FF3001D51900000E02405F0020F4FE490001211
:10100300F0A3F07B1B7D32FF12103EE4900012F040
:10101300A3F07B1C7D32FF12103EE4900012F0A37C
:10102300F07B197D32FF12103EE4900012F0A3F022
:0B1033007B1A7D32FF12103E020F49B5
:100003000000000000000000002F000000000700B7
:10001300070000147F147F1400242A7F2A12006231
:1000230064081323003649552250000005030000DD
:1000330000001C224100000041221C000014083E65
:1000430008140008083E0808000000A0600000082B
:10005300080808080000606000000020100804027F
:10006300003E5149453E0000427F4000004261513D
:100073004946002141454B31001814127F100027D7
:1000830045454539003C4A4949300001710905039A
:1000930000364949493600064949291E00003636CB
:1000A300000000005636000000081422410000142E
:1000B300141414140000412214080002015109060B
:1000C30000324959513E007C1211127C007F49498C
:1000D3004936003E41414122007F4141221C007FBD
:1000E30049494941007F09090901003E4149497ACB
:1000F300007F0808087F0000417F41000020404145
:100103003F01007F08142241007F40404040007FB0
:10011300020C027F007F0408107F003E4141413EF4
:10012300007F09090906003E4151215E007F09193C
:1001330029460046494949310001017F0101003F39
:100143004040403F001F2040201F003F4038403FB9
:10015300006314081463000708700807006151491D
:10016300454300007F41410000552A552A550000B0
:1001730041417F000004020102040040404040402E
:10018300000001020400002054545478007F4844C6
:10019300443800384444442000384444487F0038FD
:1001A3005454541800087E0901020018A4A4A47C26
:1001B300007F080404780000447D400000408084F0
:1001C3007D00007F102844000000417F4000007C38
:1001D30004180478007C0804047800384444443844
:1001E30000FC242424180018242418FC007C080490
:1001F300040800485454542000043F444020003C69
:100203004040207C001C2040201C003C4030403CEF
:10021300004428102844001CA0A0A07C004464547F
:100223004C441414141414140000000000000000C3
:100233000000000000000000000000F800000000C3
:10024300000000333000000000100C06100C060004
:10025300000000000000000040C07840C07840006B
:10026300043F04043F040400007088FC08300000CD
:10027300001820FF211E0000F008F000E018000025
:1002830000211C031E211E0000F0088870000000DE
:100293001E2123241927211010160E000000000030
:1002A3000000000000000000000000E0180402004D
:1002B300000000071820400000020418E0000000BE
:1002C3000040201807000000404080F080404000BC
:1002D3000202010F01020200000000F00000000012
:1002E3000101011F010101000000000000000000E6
:1002F30080B070000000000000000000000000005B
:1003030000010101010101010000000000000000E3
:10031300003030000000000000000000806018047E
:10032300006018060100000000E010080810E0005B
:10033300000F102020100F00001010F80000000024
:100343000020203F2020000000700808088870006B
:1003530000302824222130000030088888483000EB
:100363000018202020110E000000C02010F800000B
:1003730000070424243F240000F8088888080800A4
:100383000019212020110E0000E0108888180000B9
:10039300000F112020110E0000380808C83808008B
:1003A3000000003F0000000000708808088870000B
:1003B300001C222121221C0000E010080810E0008C
:1003C3000000312222110F00000000C0C000000015
:1003D300000000303000000000000080000000003A
:1003E3000000806000000000000080402010080032
:1003F30000010204081020004040404040404000FB
:1004030004040404040404000008102040800000D5
:100413000020100804020100007048080808F000DA
:100423000000003036010000C030C828E810E000AA
:100433000718272423140B000000C038E000000035
:10044300203C23020227382008F88888887000009F
:10045300203F202020110E00C03008080808380073
:10046300071820202010080008F808080810E000EA
:10047300203F202020100F0008F88888E80810008B
:10048300203F20202320180008F88888E80810005F
:10049300203F200003000000C03008080838000097
:1004A30007182020221E020008F808000008F80898
:1004B300203F210101213F20000808F8080800001F
:1004C3000020203F2020000000000808F808080052
:1004D300C08080807F00000008F888C028180800CA
:1004E300203F20012638200008F808000000000003
:1004F300203F20202020300008F8F800F8F80800FA
:10050300203F003F003F200008F830C00008F808F3
:10051300203F200007183F00E01008080810E00003
:100523000F10202020100F0008F808080808F0001A
:10053300203F210101010000E01008080810E0003D
:100543000F18242438504F0008F8888888887000D2
:10055300203F2000030C3020007088080808380072
:100563000038202121221C00180808F80808180068
:100573000000203F2000000008F808000008F808E9
:10058300001F202020201F000878880000C838089A
:10059300000007380E010000F80800F80008F80012
:1005A300033C0700073C03000818688080681808AC
:1005B30020302C03032C30200838C800C83808002A
:1005C3000000203F2000000010080808C838080079
:1005D3002038262120201800000000FE020202001D
:1005E3000000007F40404000000C30C000000000CD
:1005F300000000010638C00000020202FE000000F5
:10060300004040407F00000000000402020204009A
:1006130000000000000000000000000000000000D7
:1006230080808080808080800002020400000000BF
:1006330000000000000000000000808080800000B7
:100643000019242222223F2008F8008080000000A5
:10065300003F112020110E00000000808080000068
:10066300000E112020201100000000808088F80077
:10067300000E112020103F200000808080800000A9
:10068300001F222222221300008080F0888888180D
:100693000020203F20200000000080808080800018
:1006A300006B94949493600008F8008080800000AD
:1006B300203F210000203F20008098980000000088
:1006C3000020203F202000000000008098980000B8
:1006D30000C08080807F000008F8000080808000D8
:1006E300203F24022D302000000808F800000000FD
:1006F3000020203F202000008080808080808000B8
:10070300203F20003F20003F808000808080000049
:10071300203F210000203F200000808080800000D7
:10072300001F202020201F00808000808000000008
:1007330080FFA12020110E00000000808080800037
:10074300000E112020A0FF80808080008080800028
:1007530020203F2120000100000080808080800055
:100763000033242424241900008080E080800000CA
:100773000000001F20200000808000000080800017
:10078300001F202020103F20808080000080808078
:1007930000010E3008060100808000800080808008
:1007A3000F300C030C300F0000808000808080002D
:1007B3000020312E0E312000808080000080808058
:1007C30080818E7018060100008080808080800008
:1007D3000021302C2221300000000000807C020226
:1007E30000000000003F404000000000FF00000048
:1007F30000000000FF0000000002027C80000000F7
:100803000040403F00000000000601010202040412
:100813000000000000000000004042445840407FB8
:1008230040405048C60000000000000000000000E7
:1008330000000000000000000040444444444444DD
:1008430044444444FF000000000000000000000096
:0808530000000000000000009D
:091DE400D2A7D2A6C2A6C2A72212
:071DED00D2A7C2A6D2A62274
:0B1DAB00121D0F121DB6AF04121D0F19
:051DB600D2A7C2A72224
:071D0800AC07121DE47F7817
:101D0F00C2A7E4FEAD07ED5480B48004D2A68002D2
:0F1D1F00C2A6EF25E0FFD2A7C2A70EEEB408E5DB
:011D2E002292
:0E1DBB00121D08121DB6E4FF121DAB021DED35
:0E1DC900121D08121DB67F40121DAB021DED4B
:101D2F00121D40E4FDFCFFFE121D407F10E4FDFC80
:011D3F00FEA5
:101D4000AB07AA06ED4C6003021DC9AF03121DBB11
:011D50002270
:0817CF00900015EFF0A3EDF00E
:1017D700EB5407FF7010EB131313541F90001AF00C
:1017E700A37401F0806AEB131313541F90001AF0CF
:1017F700EF14B40700505990180C75F003A4C58373
:1018070025F0C5837302182102182902183102181E
:101817003902184102184902185190001B7402F04E
:10182700802E90001B7404F0802690001B7408F033
:10183700801E90001B7410F0801690001B7420F01F
:10184700800E90001B7440F0800690001B7480F09F
:10185700900015E0FF90001AE0FD121CAC900015F7
:10186700E090001CF0900016E02401FFE433FE90A6
:10187700001CE0C39FEE6480F8748098501A9000B3
:1018870018121D7290001BE0FF7E007D017C001284
:081897001D40A3E004F080CD28
:01189F002226
:05139000900017EBF0D6
:10139500EF5407FE7012EF131313541F90001AF049
:1013A50090001C74FFF0806AEF131313541F900014
:1013B5001AF0EE14B4070050599013CC75F003A43D
:1013C500C58325F0C583730213E10213E90213F106
:1013D5000213F902140102140902141190001C747D
:1013E500FEF0802E90001C74FCF0802690001C748A
:1013F500F8F0801E90001C7410F0801690001C748C
:10140500E0F0800E90001C74C0F0800690001C7403
:1014150080F0ED5407FF7012ED131313541F900065
:101425001BF090001D7401F0806AED131313541F17
:1014350090001BF0EF14B40700505990144E75F04E
:1014450003A4C58325F0C5837302146302146B02DC
:10145500147302147B02148302148B0214939000FC
:101465001D7403F0802E90001D7407F080269000F7
:101475001D740FF0801E90001D741FF080169000E3
:101485001D743FF0800E90001D747FF08006900063
:101495001D74FFF0900017E0FF90001AE0FD121C8C
:1014A500AC90001CE0FF7E007D017C00121D401207
:1014B5001D6F900017E0FF90001AE004FD121CACB0
:1014C50090001AE00490001EF090001BE0FF9000D1
:1014D5001EE0C39F5023121D6F900017E0FF900080
:1014E5001EE0FD121CAC7D017C007FFF7E00121DFD
:1014F5004090001EE004F080D0900017E0FF9000BF
:101505001BE0FD121CAC121D6F90001DE0FF7E005C
:071515007D017C00021D4076
:05103E00900011EBF031
:10104300EF5407FE7011EF131313541F900014F0A5
:10105300E4900016F0806AEF131313541F900014EA
:10106300F0EE14B40700505990107975F003A4C53D
:101073008325F0C5837302108E02109602109E0220
:1010830010A60210AE0210B60210BE90001674FE37
:10109300F0802E90001674FCF0802690001674F8F1
:1010A300F0801E9000167410F0801690001674E005
:1010B300F0800E90001674C0F080069000167480C5
:1010C300F0ED5407FF7012ED131313541F90001526
:1010D300F09000177401F0806AED131313541F90FE
:1010E3000015F0EF14B4070050599010FB75F0038E
:1010F300A4C58325F0C583730211100211180211D0
:1011030020021128021130021138021140900017F9
:101113007403F0802E9000177407F0802690001758
:10112300740FF0801E900017741FF0801690001744
:10113300743FF0800E900017747FF08006900017C4
:1011430074FFF0900011E0FF900014E0FD121CAC5E
:10115300900016E0FF7E007D017C00121D40900090
:1011630012E0FEA3E07803C333CE33CED8F9FF12E7
:101173001D77900011E0FF900014E004FD121CACF9
:10118300900014E004900018F0900015E0FF900028
:1011930018E0C39F5033900012E0FEA3E07803C32E
:1011A30033CE33CED8F9FF121D77900011E0FF90B4
:1011B3000018E0FD121CAC7D017C00E4FFFE121D53
:1011C30040900018E004F080C0900011E0FF900010
:1011D30015E0FD121CAC900012E0FEA3E07803C3FF
:1011E30033CE33CED8F9FF121D77900017E0FF7E80
:0811F300007D017C00021D409B
:0511FB00900017EBF06D
:10120000EF5407FE7012EF131313541F90001AF0DF
:1012100090001C74FFF0806AEF131313541F9000AA
:101220001AF0EE14B40700505990123775F003A469
:10123000C58325F0C5837302124C02125402125C5E
:1012400002126402126C02127402127C90001C746E
:10125000FEF0802E90001C74FCF0802690001C7420
:10126000F8F0801E90001C7410F0801690001C7422
:10127000E0F0800E90001C74C0F0800690001C749A
:1012800080F0ED5407FF7012ED131313541F9000FC
:101290001BF090001D7401F0806AED131313541FAE
:1012A00090001BF0EF14B4070050599012B975F07C
:1012B00003A4C58325F0C583730212CE0212D602A1
:1012C00012DE0212E60212EE0212F60212FE900086
:1012D0001D7403F0802E90001D7407F0802690008E
:1012E0001D740FF0801E90001D741FF0801690007A
:1012F0001D743FF0800E90001D747FF080069000FA
:101300001D74FFF0900017E0FF90001BE0FD121C21
:10131000AC90001DE0FF7E007D017C00121D40901E
:101320000018121D72900017E0FF90001AE004FDF3
:10133000121CAC90001BE01490001EF090001AE00C
:10134000FF90001EE0D39F4026900018121D72905F
:101350000017E0FF90001EE0FD121CAC7D017C0038
:101360007FFF7E00121D4090001EE014F080CD90A3
:101370000017E0FF90001AE0FD121CAC900018125C
:101380001D7290001CE0FF7E007D017C00021D406C
:101ACC0090000FEFF0A3EDF0FEA3EBF0C00714FDB8
:101ADC00AB06900013E0FFA3E0900018CFF0A3EF4B
:101AEC00F0D0071217CF900012E0FD900011E0FB30
:101AFC00900013E0FEA3E07803C333CE33CED8F9C5
:101B0C00FF900018EEF0A3EFF0900010E0FF12131E
:101B1C009090000FE004FFC007900011E014FDA3AB
:101B2C00E0FBA3E0FFA3E0900018CFF0A3EFF0D010
:101B3C00071217CF900012E0FD90000FE0FB900011
:101B4C0013E0FEA3E07803C333CE33CED8F9FF9075
:0F1B5C000018EEF0A3EFF0900010E0FF0211FB75
:0D1A2900900012FFE0FE900010E0C39EFD53
:101A3600ED5407FE7010ED131313541F90001DF0A4
:101A4600A37401F0806AED131313541F90001DF068
:101A5600EE14B407005059901A6B75F003A4C583B1
:101A660025F0C58373021A80021A88021A90021A98
:101A760098021AA0021AA8021AB090001E7402F068
:101A8600802E90001E7404F0802690001E7408F0CC
:101A9600801E90001E7410F0801690001E7420F0B8
:101AA600800E90001E7440F0800690001E7480F038
:101AB60090001DE0FD121CAC90001EE0FF7E007D34
:061AC600017C00021D403E
:10085B0090000FEEF0A3EFF0A3ECF0A3EDF0A3EA02
:04086B00F0A3EBF01B
:10086F0090000FE0FEA3E0FFC3EB9FFFEA9E900016
:10087F0017F0FAA3EFF0900011E0FEA3E0FFC39092
:10088F000016E09FFF900015E09E900019F0A3EF77
:10089F00F0C3EA648094805003020B7E900019E04D
:1008AF00FCA3E0FDEC648094805003020A109000DA
:1008BF0017E0FEA3E0FF9DEC6480F8EE6480985093
:1008CF000302096F7C007D021216A5C390001AE087
:1008DF009FFF900019E09E90001BF0A3EFF0900097
:1008EF0013E0FEA3E0FF90000FE0FCA3E0FDD39F19
:1008FF00EE6480F8EC6480984003020E62AF05A3AB
:10090F00A3E0FD121A3690001BE0FEA3E0FFD39484
:10091F0000EE648094804023900012E004F0700693
:10092F00900011E004F0900017E0FCA3E0FDC3EF8E
:10093F009DFFEE9C90001BF0A3EFF0900010E004E1
:10094F00F0700690000FE004F0900019E0FEA3E0B5
:10095F00FF90001CE02FF090001BE03EF00208ED2E
:10096F00900019E0FEA3E0FF7C007D021216A5C3E4
:10097F00900018E09FFF900017E09E90001BF0A3DF
:10098F00EFF0900015E0FEA3E0FF900011E0FCA354
:10099F00E0FDD39FEE6480F8EC6480984003020E74
:1009AF006290000FA3E0FF121A3690001BE0FEA327
:1009BF00E0FFD39400EE648094804021900010E01B
:1009CF0004F0700690000FE004F0900019E0FCA313
:1009DF00E0FDC3EF9DFFEE9CA3F0A3EFF09000129C
:1009EF00E004F07006900011E004F0900017E0FEB4
:1009FF00A3E0FF90001CE02FF090001BE03EF08082
:100A0F0081900019E0FEA3E0FFC3E49FFFE49EFE88
:100A1F00900019F0A3EFF0C3900018E09FEE6480F0
:100A2F00F8900017E06480985003020ADDE0FEA3FF
:100A3F00E0FF7C007D021216A5C390001AE09FFF15
:100A4F00900019E09E90001BF0A3EFF0900013E0D0
:100A5F00FEA3E0FF90000FE0FCA3E0FDD39FEE6448
:100A6F0080F8EC6480984003020E62AF05A3A3E008
:100A7F00FD121A3690001BE0FEA3E0FFD39400EEA8
:100A8F00648094804023900012E024FFF0900011C6
:100A9F00E034FFF0900017E0FCA3E0FDC3EF9DFFF3
:100AAF00EE9C90001BF0A3EFF0900010E004F070AC
:100ABF000690000FE004F0900019E0FEA3E0FF9015
:100ACF00001CE02FF090001BE03EF0020A5B90004C
:100ADF0019E0FEA3E0FF7C007D021216A5C3900073
:100AEF0018E09FFF900017E09E90001BF0A3EFF01F
:100AFF00900015E0FEA3E0FF900011E0FCA3E0FDE5
:100B0F00C39FEE6480F8EC6480985003020E6290ED
:100B1F00000FA3E0FF121A3690001BE0FEA3E0FFC8
:100B2F00D39400EE648094804021900010E004F094
:100B3F00700690000FE004F0900019E0FCA3E0FDB8
:100B4F00C3EF9DFFEE9CA3F0A3EFF0900012E02403
:100B5F00FFF0900011E034FFF0900017E0FEA3E0EB
:100B6F00FF90001CE02FF090001BE03EF080819082
:100B7F000017E0FEA3E0FFC3E49FFFE49E90001781
:100B8F00F0A3EFF0A3E0FCA3E0FDC3EC648094803E
:100B9F005003020CF7900017E0FEA3E0FF9DEC64FA
:100BAF0080F8EE6480985003020C567C007D021290
:100BBF0016A5C390001AE09FFF900019E09E9000C9
:100BCF001BF0A3EFF0900013E0FEA3E0FF90000FE7
:100BDF00E0FCA3E0FDC39FEE6480F8EC64809850C6
:100BEF0003020E62AF05A3A3E0FD121A3690001B9D
:100BFF00E0FEA3E0FFD39400EE6480948040239046
:100C0F000012E004F07006900011E004F09000175D
:100C1F00E0FCA3E0FDC3EF9DFFEE9C90001BF0A353
:100C2F00EFF0900010E024FFF090000FE034FFF0A1
:100C3F00900019E0FEA3E0FF90001CE02FF0900061
:100C4F001BE03EF0020BD4900019E0FEA3E0FF7C06
:100C5F00007D021216A5C3900018E09FFF900017A9
:100C6F00E09E90001BF0A3EFF0900015E0FEA3E0D4
:100C7F00FF900011E0FCA3E0FDD39FEE6480F8EC41
:100C8F006480984003020E6290000FA3E0FF121AD7
:100C9F003690001BE0FEA3E0FFD39400EE64809437
:100CAF00804021900010E024FFF090000FE034FF0F
:100CBF00F0900019E0FCA3E0FDC3EF9DFFEE9CA3B5
:100CCF00F0A3EFF0900012E004F07006900011E036
:100CDF0004F0900017E0FEA3E0FF90001CE02FF05F
:100CEF0090001BE03EF08081900019E0FEA3E0FF32
:100CFF00C3E49FFFE49EFE900019F0A3EFF0C390B2
:100D0F000018E09FEE6480F8900017E06480985020
:100D1F0003020DC4E0FEA3E0FF7C007D021216A5C6
:100D2F00C390001AE09FFF900019E09E90001BF007
:100D3F00A3EFF0900013E0FEA3E0FF90000FE0FCA4
:100D4F00A3E0FDC39FEE6480F8EC6480985003022B
:100D5F000E62AF05A3A3E0FD121A3690001BE0FE52
:100D6F00A3E0FFD39400EE648094804023900012A0
:100D7F00E024FFF0900011E034FFF0900017E0FC4A
:100D8F00A3E0FDC3EF9DFFEE9C90001BF0A3EFF0DF
:100D9F00900010E024FFF090000FE034FFF090007F
:100DAF0019E0FEA3E0FF90001CE02FF090001BE085
:100DBF003EF0020D42900019E0FEA3E0FF7C007DA3
:100DCF00021216A5C3900018E09FFF900017E09E37
:100DDF0090001BF0A3EFF0900015E0FEA3E0FF9052
:100DEF000011E0FCA3E0FDC39FEE6480F8EC64808B
:100DFF0098406090000FA3E0FF121A3690001BE09E
:100E0F00FEA3E0FFD39400EE648094804021900015
:100E1F0010E024FFF090000FE034FFF0900019E095
:100E2F00FCA3E0FDC3EF9DFFEE9CA3F0A3EFF090BA
:100E3F000012E024FFF0900011E034FFF090001753
:100E4F00E0FEA3E0FF90001CE02FF090001BE03EBF
:030E5F00F080849C
:010E6200226D
:08151C0090000FEFF0A3EDF0C9
:10152400EBC313F404900013F0E4900011F0A3EB68
:10153400F0900011E0FFA3E0FEC39F5003021610D9
:1015440090000FE02F14FFA3E02E14FD121A369022
:101554000012E0FF90000FE02F14FF900011E0FE56
:10156400900010E02E14FD121A36900011E0FF9046
:10157400000FE0C39FFF900012E0FE900010E02EE9
:1015840014FD121A36900012E0FF90000FE0C39F82
:10159400FF900011E0FE900010E02E14FD121A36A8
:1015A400900011E0FF90000FE0C39F121A299000F1
:1015B40012E0FF90000FE0C39F900011121A2C90CC
:1015C4000011E0FF90000FE02F14121A299000126E
:1015D400E0FF90000FE02F14FF900011121A2D90DD
:1015E4000011E004F0900013E0C394005006900052
:1015F40011E0800E900012E014F0E0FF900011E082
:0C160400C39FFF900013E02FF00215358B
:0116100022B7
:101D5100D3EF9400EE940040147D657C18ED1D7066
:0D1D6100011CED4C70F7EF1F70E61E80E3D3
:011D6E002252
:081D6F00900018E0FEA3E0FF64
:101D7700EF1FAA0670011E4A600BE4FDEDC3947BBA
:051D870050EE0D80F795
:011D8C002234
:081CA400900018E0FFA3E0FD31
:101CAC00A907ED24B0FFE433FEE4FDFC121D40E96E
:101CBC0054F0C4540F7E004410FFE4FDFC121D4090
:0C1CCC00E9540FFF7E00E4FDFC021D4007
:101CD800E4F9E924B0FFE433FEE4FDFC121D2FE42F
:101CE80090000FF07D017C00E4FFFE121D40900083
:0F1CF8000FE004F0E0C3948040EA09E9B408D398
:011D070022B9
:0B18A000900019EDF0900018EFF0FD33
:1018AB00E490001CF0F9EB24E0F0EDD3947F400AB8
:1018BB00E4900018F0A3E02402F090001BE0641009
:1018CB00706E121CA4E4F990001CE075F010A429B2
:1018DB00F582E435F0F583E582242BF582E583343C
:1018EB0002F583E493FF7E007D017C00121D40090D
:1018FB00E9B408D3900018E0FFA3E004FD121CAC80
:10190B00E4F990001CE075F010A429F582E435F0A1
:10191B00F583E5822433F582E5833402F583E49382
:10192B00FF7E007D017C00121D4009E9B408D32223
:10193B00121CA4E4F990001CE075F006A42403F536
:10194B0082E5F03400F583E58229F582E43583F5F1
:10195B0083E493FF7E007D017C00121D4009E9B4F6
:02196B0006D3A1
:01196D002257
:071D8D00900018EFF0A9051A
:101D94007F017E00AD0119ED600C900018E0FD7C20
:061DA4000012163E80EE65
:011DAA002216
:0E196E0090000FEFF0A3EDF0A3EAF0A3EBF072
:10197C00E4900017F0900015F0900013E0FF900039
:10198C0015E0FEC39F4003021A28C3EF9E14FD7F8F
:10199C000A121D8D900011E0FCA3E0FDCFCDCFCE3F
:1019AC00CCCE1216507C007D0A121650900016ED0B
:1019BC00F0A3E07036900013E014FF900015E0FEE9
:1019CC00C39F5027A3E0701D900014E0FCC3138E3E
:1019DC00F0A4FF90000FE02FFFA3E0FD90001BECA4
:1019EC00F07B20802B9000177401F0900014E0FE27
:1019FC00C313FFA3E0FDEF8DF0A4FF90000FE02FC9
:101A0C00FFA3E0FD900016E02430FB90001BEEF0ED
:0C1A1C001218A0900015E004F0021985DB
:011A2800229B
:101BF70090000FEFF0A3EDF0A3EBF0A3EAF0A3E959
:011C0700F0EC
:101C0800E4900015F0900011E0FBA3E0FAA3E0F9DE
:101C1800900015E0F582758300121611FB602F9075
:101C2800000FE0FFA3E0FD900014E090001BF0120D
:101C380018A090000FE02408F0E0D394784007E45F
:0E1C4800F0A3E02402F0900015E004F080B755
:011C5600226B
:1016F300E4FDFC7FAEFE121D2F7F40121D3CE4FD76
:10170300FC7FB0FE121D40E4FDFC7F81FE121D40F4
:10171300E4FDFC7FFFFE121D40E4FDFC7FA1FE12F1
:101723001D40E4FDFC7FA6FE121D40E4FDFC7FA8E6
:10173300FE121D40E4FDFC7F3FFE121D40E4FDFC54
:101743007FC8FE121D40E4FDFC7FD3FE121D40E462
:10175300FDFCFFFE121D40E4FDFC7FD5FE121D4083
:10176300E4FDFC7F80FE121D40E4FDFC7FD8FE12E9
:101773001D40E4FDFC7F05FE121D40E4FDFC7FD906
:10178300FE121D40E4FDFC7FF1FE121D40E4FDFC52
:101793007FDAFE121D40E4FDFC7F12FE121D40E4C1
:1017A300FDFC7FDBFE121D40E4FDFC7F30FE121DBD
:1017B30040E4FDFC7F8DFE121D40E4FDFC7F14FE22
:0C17C300121D40E4FDFC7FAFFE021D4043
:03000000021B6B75
:0C1B6B00787FE4F6D8FD758120021BB2E3
:10161100BB010CE58229F582E5833AF583E022508E
:1016210006E92582F8E622BBFE06E92582F8E222D8
:0D163100E58229F582E5833AF583E49322F2
:10163E00EF8DF0A4A8F0CF8CF0A428CE8DF0A42EC0
:02164E00FE227A
:10165000BC000BBE0029EF8DF084FFADF022E4CC7E
:10166000F875F008EF2FFFEE33FEEC33FCEE9DEC47
:10167000984005FCEE9DFE0FD5F0E9E4CEFD22ED8D
:10168000F8F5F0EE8420D21CFEADF075F008EF2FD7
:10169000FFED33FD4007985006D5F0F222C398FDC8
:0516A0000FD5F0EA2265
:1016A500C2D5EC30E709B2D5E4C39DFDE49CFCEE60
:1016B50030E715B2D5E4C39FFFE49EFE121650C372
:1016C500E49DFDE49CFC800312165030D507C3E46D
:0616D5009FFFE49EFE22CF
:101C570090001F1216DB7810EC4D4E4F70047CA5D8
:101C67007DA5C3EC13FCED13FDEE13FEEF13FF5040
:101C770010EC64CCFCED644CFDEE644EFEEF64CEDC
:101C8700FFD8DF90001F1216E7EE547FFE22900068
:0D1C97001FEEF0EFA3F0A374A5F0A3F02260
:101B7700020E63E493A3F8E493A34003F68001F213
:101B870008DFF48029E493A3F85407240CC8C3336F
:101B9700C4540F4420C8834004F456800146F6DF3E
:101BA700E4800B0102040810204080901DF4E47EBD
:101BB700019360BCA3FF543F30E509541FFEE49333
:101BC700A360010ECF54C025E060A840B8E493A3FA
:101BD700FAE493A3F8E493A3C8C582C8CAC583CA25
:101BE700F0A3C8C582C8CAC583CADFE9DEE780BEDD
:011DF60000EC
:0C16DB00E0FCA3E0FDA3E0FEA3E0FF2282
:0C16E700ECF0A3EDF0A3EEF0A3EFF02276
:00000001FF
