:020000040800F2
:100000008804002001010008430F0008710C00085B
:10001000410F00086D0100088D110008000000006C
:10002000000000000000000000000000EF100008C9
:100030006F01000800000000ED100008F11000083A
:100040001B0100081B0100081B0100081B01000820
:100050001B0100081B0100081B0100081B01000810
:100060001B0100081B0100081B0100081B01000800
:100070001B0100081B0100081B0100081B010008F0
:100080001B0100081B0100081B0100081B010008E0
:100090001B0100081B0100081B0100081B010008D0
:1000A0001B0100081B0100081B0100081B010008C0
:1000B0001B0100081B0100081B0100081B010008B0
:1000C0001B0100081B0100081B0100081B010008A0
:1000D0001B0100081B0100081B0100081B01000890
:1000E0001B0100081B0100081B010008DFF80CD0F1
:1000F00000F02AF800480047E511000888040020B5
:100100000648804706480047FEE7FEE7FEE7FEE7B1
:10011000FEE7FEE7FEE7FEE7FEE7FEE74511000823
:10012000ED000008D2B201E000F8012B491EFBD21D
:1001300070470022F6E710B513460A4604461946F2
:10014000FFF7F0FF204610BD064C074D06E0E068C3
:1001500040F0010394E8070098471034AC42F6D30E
:10016000FFF7C8FF581A0008781A0008FEE7704722
:100170007047000070B5044600F0ECF80546601CBE
:1001800002D004480078044400F0E4F8401BA04288
:10019000FAD370BD200000202DE9F84FDFF890A1C0
:1001A00000220AF1040B144601274FF00F090BF14E
:1001B000040E00BF0B6807FA04F52B40AB4274D164
:1001C000DFF870C14E68A6EB0C0866452BD00DDC3D
:1001D000032E34D005DC36B3012E19D0022E2FD1D8
:1001E0001BE0112E16D0122E2AD119E0B8F5881F67
:1001F00019D006DCB8F5803F15D0B8F5801F1FD1A7
:1002000011E0B8F5001F0ED0B8F5041F18D10AE0B0
:10021000CA6815E0CA68121D12E0CA6808320FE009
:10022000CA680C320CE08A682AB1012A4FF0080231
:1002300003D0456104E0042202E0056100E00022F1
:10024000FF2B01D8064601E000F104064FEA8405C1
:1002500001D9A5F12005D6F800C009FA05F82CEA65
:10026000080C02FA05F54CEA050CC6F800C04D680A
:10027000ED0057D5304DAE6946F00106AE61AD696F
:1002800024F0030605F0010500952C4D06EB050C46
:10029000DCF80850A6074FEA167809FA08F6B543C5
:1002A000274EB04202D1002610E03BE0254EB0427E
:1002B00001D101260AE0244EB04201D1022605E018
:1002C000224EB04201D1032600E0042606FA08F6C9
:1002D0002E43CCF808604D68DAF80060ED0355460F
:1002E00001D51E4300E09E432E604D68DBF80060A0
:1002F000AD035D4601D51E4300E09E432E604D6870
:10030000DEF80060ED02754601D51E4300E09E4315
:100310002E604D68AD020E4D2E6801D51E4300E0E3
:100320009E432E60641C102CFFF444AFBDE8F88F90
:1003300000040140000011100010024000000140C4
:1003400000080140000C0140001001400014014071
:100350000C04014001488068704700002000002024
:1003600070B504001BD094F83D00002520B984F836
:100370003C50204600F032F9242084F83D002068EB
:10038000016821F00101016000F096FA404A6168BD
:10039000914201D83F4900E03F49884201D2012003
:1003A00070BD3E492368B0FBF1F159606368934228
:1003B00006D94FF4967359434FF47A73B1FBF3F1B6
:1003C0002368491C19626168914210D84900401E97
:1003D000B0FBF1F2521CC2F30B02042A01D204203A
:1003E00022E0B0FBF1F0401CC0F30B001CE0A3685E
:1003F000CBB301EBC10202EB0116421EB2FBF6F2D7
:10040000521C42F48042120536D06BB301EBC1029C
:1004100002EB0111401EB0FBF1F0401CC0F30B00D9
:1004200040F4804040F400402168C861D4E90701ED
:10043000084321680860D4E90310084321688860F4
:10044000D4E9050108432168C8602068016841F0CB
:10045000010101602564202084F83D00256384F8B3
:100460003E50002070BD00E008E001EB4106421E56
:10047000B2FBF6F2521CC6E70120D5E701EB4101C1
:10048000401EB0FBF1F0401CC0F30B00CAE70000B7
:10049000A086010080841E0000093D0040420F003C
:1004A0002DE9FF4F83B09A46DDE911879346044654
:1004B000DDF84090FFF74EFF064694F83D002028F7
:1004C0007DD11923012243492046009600F05DFCAE
:1004D00000287CD194F83C00012878D0012084F8D1
:1004E0003C0020680168C90703D1016841F001019F
:1004F00001602068016821F400610160212084F816
:100500003D00402084F83E0000252564C4F8249076
:10051000A4F82A803048E062608D2085CDE900761D
:1005200053465A462046049900F0B8FB80B3206C2D
:1005300084F83C50042848D008E03246394620462A
:1005400000F098FC30B1206C042839D0032007B0AB
:10055000BDE8F08F606A411C616221680078086123
:10056000208D401E80B22085618D491E61852168E5
:100570004A69D24352070BD468B1606A421C626276
:1005800000780861208D401E2085608D401E6085AA
:10059000208D0028D1D132463946204600F0CEFBCE
:1005A0000028D0D154F83D0B016841F4007101607E
:1005B000202004F81E09E57765770020C7E706E0EC
:1005C0002068016841F4007101600120BFE702204A
:1005D000BDE70000020010000000FFFF10B586B06C
:1005E0000021009101910291039100680F49884216
:1005F0001AD10F4CA06940F00800A061A0696946BB
:1006000000F008000490C020009012200190032008
:1006100003900848FFF7C0FDE06940F40010E06176
:10062000E06900F40010049006B010BD00540040D2
:1006300000100240000C0140024881680278114419
:100640008160704720000020074810B5016841F024
:1006500010010160032000F067F8002000F006F8A8
:1006600000F024F8002010BD0020024070B50D4DB0
:1006700004464FF47A712878B1FBF0F00A49096812
:10068000B1FBF0F000F0E0FA48B9102C07D20022DC
:100690002146501E00F028F800206C6070BD01203B
:1006A00070BD0000200000202C0000200C4808B580
:1006B000816941F001018161816901F001010091CD
:1006C000C16941F08051C161C06900F08050009063
:1006D0000448416821F0E06141F00071416008BDCB
:1006E0000010024000000140F0B40E4B1B680C46A5
:1006F000C3F30223C3F10705042D00D90425191DF6
:10070000072901D2002300E0DB1E012606FA05F1CD
:10071000491E214099409E40761E16403143F0BC50
:1007200000F010BC0CED00E0064900F0070208687C
:100730004FF6FF03184040EA0220034A10430860C6
:10074000704700000CED00E00000FA052DE9F047CD
:10075000DFF8548105460E46D8F8000000F0070087
:10076000B0420CD2D8F8001021F007013143C8F88C
:100770000010D8F8000000F00700B0426FD12868E0
:100780004A4C810712D5400703D5606840F4E06009
:1007900060602878000703D5606840F460506060AE
:1007A0006068A96820F0F000084360602878C007FE
:1007B00044D06868012816D02168022816D089071D
:1007C00000294CDA616821F0030101436160FFF701
:1007D000C1FD6968074641F2883001290ED002291F
:1007E000814618D026E021688903E9E78901E7E717
:1007F000FFF7B0FDC11B494501D918E0814660688B
:10080000C0F381000128F3D118E000BFFFF7A2FD7B
:10081000C11B49450BD86068C0F381000228F5D19F
:100820000CE000BFFFF796FDC11B494502D903202C
:10083000BDE8F087606810F00C0FF3D1D8F8001015
:10084000404601F00701B1420BD9016821F00701D0
:1008500031430160006800F00700B04201D0012080
:10086000E6E72878400705D56068E96820F4E0608D
:10087000084360602878000706D56068296920F47D
:10088000605040EAC100606000F026F86168084AE4
:10089000C1F30311515CC840064908600020FFF70E
:1008A000E5FE0020C4E700000020024000100240E6
:1008B000401A00082C0000200448054900684968D7
:1008C000044AC1F30221515CC84070472C0000204B
:1008D00000100240501A000812A185B00FC98DE81F
:1008E0000F0014A0144A006804905168134801F0E6
:1008F0000C03042B10D0082B0ED1C1F38343C90382
:100900001DF803000AD5516804AAC1F34041515CA7
:100910000A4A5043B0FBF1F005B07047084948431C
:10092000FAE7000002030405060708090A0B0C0D8C
:100930000E0F1010010200000010024000127A0099
:1009400000093D002DE9F84F04460078B94DC00775
:1009500048D06868C0F38100012807D06868C0F3F8
:100960008100022809D16868C00306D52868800381
:1009700038D5606800286FD034E06068B0F5803FFB
:100980000BD010B1B0F5A02F11D0286820F4803022
:100990002860286820F4802002E0286840F4803035
:1009A0002860606888B1FFF7D5FC064609E0286832
:1009B00040F480202860F0E7FFF7CCFC801B64281F
:1009C00075D828688003F7D50CE0FFF7C3FC06460E
:1009D00005E000BFFFF7BEFC801B6428F0D8286844
:1009E0008003F7D42078944E80074FF001094FF030
:1009F00000083BD5686810F00C0F07D06868C0F39A
:100A00008100022809D16868C00306D428688007DD
:100A100014D5206901281FD110E02069B0B1C6F8B3
:100A20000090FFF797FC074605E000BFFFF792FC38
:100A3000C01B0228C4D828688007F7D528686169D8
:100A400020F0F80040EAC10028600FE0C6F80080FE
:100A5000FFF780FC074606E0E9E000BFFFF77AFCFD
:100A6000C01B022823D828688007F7D42078000705
:100A70002CD57248A169D9B1C0F80090FFF76AFC83
:100A8000074604E0FFF766FCC01B02280FD8686A1F
:100A90008007F7D56A484FF4FA510068B0FBF1F0CF
:100AA000009000BF0098411E0091FAD20EE080E055
:100AB000C0F80080FFF74EFC074604E0FFF74AFC51
:100AC000C01B022875D8686A8007F7D420784007D1
:100AD00060D5E8690027C00008D4E86940F080507C
:100AE000E861E869012700F08050009055480168EE
:100AF000C90513D40168834641F480710160FFF792
:100B000029FC824606E000BFFFF724FCA0EB0A00A8
:100B100064284ED8DBF80000C005F5D5E068012850
:100B20000AD008B1052813D0286A20F001002862F5
:100B3000286A20F0040002E0286A40F001002862E0
:100B4000E06841F2883B98B1FFF704FC82460BE075
:100B5000286A40F004002862EEE700BFFFF7FAFBC6
:100B6000A0EB0A0159455AD8286A8007F6D50CE04F
:100B7000FFF7F0FB824605E0FFF7ECFBA0EB0A0174
:100B800059454CD8286A8007F6D41FB1E86920F08F
:100B90008050E861E06988B36968C1F38101022986
:100BA00045D00228C6F8608004D0FFF7D3FB044686
:100BB00038E034E0FFF7CEFB074604E0FFF7CAFB5E
:100BC000C01B02282BD828688001F7D4206AB0F512
:100BD000803F05D16868A16820F400300843686050
:100BE000D4E908010843696821F474110843686076
:100BF000C6F86090FFF7AEFB044606E015E000BFC4
:100C0000FFF7A8FB001B022809D828688001F7D548
:100C10000BE000BFFFF79EFB001B022802D9032058
:100C2000BDE8F88F28688001F4D40020F8E701209F
:100C3000F6E70000001002400000424280044242F9
:100C40002C0000200070004010B5401EB0F1807FE5
:100C500001D3012010BD4FF0E02460610F21601727
:100C600000F070F90020A06107202061002010BD75
:100C7000FEE701684A69D24352050CD46FF48062E2
:100C80004A6104210164002140F8301F2022427390
:100C90000173012070470020704700002DE9F843E0
:100CA000044600680D46DDE9089701689846164637
:100CB00041F4807101604B4600224FF00111204643
:100CC000009700F062F8E8B9216805F0FE000861BD
:100CD0003B464A461849204600F088F828B1206C67
:100CE00004280FD10120BDE8F8832068416980699C
:100CF00000903A464946204600F0BCF820B1206CEE
:100D0000042813D00320EEE7F5B2B8F1010F09D0A3
:100D10002168300A08613A464946204600F0AAF8A0
:100D20000028ECD1206805610020DCE7206801681C
:100D300041F400710160D5E70200010070B516466C
:100D40000D4604461AE02046FFF793FF08B1012044
:100D500070BD681C12D025B1FFF7FCFA801BA842B9
:100D60000CD954F8400F40F0200044F8100900203E
:100D70002060202161732073032070BD20684069CA
:100D8000C0434007DFD4002070BD2DE9F0471E4668
:100D900090460D460446C1F30747DDF8209012E067
:100DA000701C10D02EB1FFF7D5FAA0EB0900B042AD
:100DB00009D9002044F8300F20216173A0732073FB
:100DC0000320BDE8F0872068012F0AD0806925EA5A
:100DD00000000004000C06D000214145E0D00020B6
:100DE000EFE74069F3E70121F7E700002DE9F0475D
:100DF0009A4691460D46044600264FF02008C1F35E
:100E000007472AE020684069C043400512D42068A3
:100E1000016841F40071016021686FF480604861ED
:100E200004202064266384F83D8084F83C6001201F
:100E3000BDE8F087B9F1FF3F0FD0B9F1000F05D041
:100E4000FFF788FAA0EB0A01494506D944F8306F4C
:100E500084F80D8026730320EAE72068012F07D06D
:100E6000D0F8180025EA00000004000CE0D0C9E723
:100E70004069F7E770B516460D4604461AE020466D
:100E8000FFF7F7FE08B1012070BD681C12D025B134
:100E9000FFF760FA801BA8420CD954F8400F40F0CD
:100EA000200044F810090020206020216173207385
:100EB000032070BD20684069C0430006DFD40020D5
:100EC00070BD00000D4808B5816941F020018161C5
:100ED000816901F020010091816941F00401816183
:100EE000816901F004010091816941F0080181618B
:100EF000806900F00800009008BD0000001002406A
:100F00000D4810B50B4901600C49416000214FF4B8
:100F100080428160C0E9031241618161C161016267
:100F2000FFF71EFA002803D0BDE81040FFF720B9F4
:100F300010BD00000054004030000020A0860100D9
:100F4000FEE770470907090E002806DA00F00F00D7
:100F500000F1E02080F8141D704700F1E02080F8D7
:100F60000014704770B5002404F1B000C0B200F066
:100F700099F8002000F096F8102000F093F8002572
:100F8000002000F0A1F86D1CEDB2802DF8D3641C98
:100F9000E4B2082CE8D370BD10B58D2000F082F8C3
:100FA000142000F07FF8BDE81040AF2000F07AB8C0
:100FB00010B5C820FFF7DEF8BDE8104000F0E8B833
:100FC00010B50446B031C8B200F06CF8102040EA09
:100FD000141000F067F804F00F00BDE8104000F0B6
:100FE00061B800002DE9F041203A00240D4680460A
:100FF000D6B27F2803D900208D1C8046EDB2102B7D
:1010000029460FD0FFF7DCFF164906EB460001EB3F
:101010004005285D00F058F8641CE4B2062CF8D3B3
:10102000BDE8F081FFF7CCFF0F4F00BF04EB0610C7
:10103000385C00F049F8641CE4B2082CF6D36D1C4F
:10104000E9B24046FFF7BCFF5FF0000404EB061076
:101050003844007A00F038F8641CE4B2082CF5D368
:10106000DEE7000028120008501400082DE9F041C6
:10107000984617460E46044600250DE04346314685
:101080002046FFF7AFFF0834E4B2782C02D90024E1
:10109000B61CF6B26D1CEDB27A5D002AEED1BDE849
:1010A000F081000001B584B001214FF4807204A8E2
:1010B0008DE807000B46002278210248FFF7F0F97F
:1010C00005B000BD3000002001B584B001214FF40F
:1010D000807204A88DE807000B4640227821024860
:1010E000FFF7DEF905B000BD300000207047704703
:1010F000FFF7A2BA30B58FB028216846FFF719F87C
:1011000014210AA8FFF715F801210804CDE9001001
:101110000024029402250491CDE907504FF4E01019
:1011200009906846FFF70EFC0F20CDE90A0568021A
:10113000CDE90C4002210AA80E94FFF707FB0FB07F
:1011400030BD00000D48016841F0010101604168B7
:101150000B4A1140416001680A4A11400160016870
:1011600021F480210160416821F4FE0141604FF4C7
:101170001F0181600449C0030860704700100240ED
:101180000000FFF8FFFFF6FE08ED00E0FEE70000BC
:10119000FEB50024094F4FF4807501263819CDE9BA
:1011A000000601230022782102950548FFF778F90F
:1011B000641CE4B21B2CF1D3FEBD0000040000202F
:1011C0003000002002E008C8121F08C1002AFAD12E
:1011D00070477047002001E001C1121F002AFBD1B7
:1011E000704700001FB5FFF72FFAFFF783FFFFF7E7
:1011F00069FEFFF785FE08A30FCB8DE80F00FFF710
:10120000D7FEFFF7C9FEFFF7ADFE002110236A46A7
:101210000846FFF72BFFFEE768656C6C6F77207759
:101220006F726C64202121000000000000000000AB
:10123000002F000000000700070000147F147F1437
:1012400000242A7F2A1200626408132300364955BD
:10125000225000000503000000001C224100000095
:1012600041221C000014083E08140008083E08082B
:10127000000000A060000008080808080000606086
:101280000000002010080402003E5149453E0000C5
:10129000427F4000004261514946002141454B31A7
:1012A000001814127F10002745454539003C4A4973
:1012B00049300001710905030036494949360006E5
:1012C0004949291E0000363600000000563600004D
:1012D00000081422410000141414141400004122C8
:1012E000140800020151090600324959513E007CA0
:1012F0001211127C007F49494936003E414141228A
:10130000007F4141221C007F49494941007F090972
:101310000901003E4149497A007F0808087F000022
:10132000417F4100002040413F01007F08142241DD
:10133000007F40404040007F020C027F007F040895
:10134000107F003E4141413E007F09090906003EF1
:101350004151215E007F091929460046494949311A
:101360000001017F0101003F4040403F001F20403D
:10137000201F003F4038403F0063140814630007FB
:101380000870080700615149454300007F41410052
:1013900000552A552A55000041417F0000040201F2
:1013A00002040040404040400000010204000020D0
:1013B00054545478007F484444380038444444200E
:1013C00000384444487F00385454541800087E09BB
:1013D00001020018A4A4A47C007F08040478000083
:1013E000447D4000004080847D00007F1028440040
:1013F0000000417F4000007C04180478007C080451
:10140000047800384444443800FC2424241800188C
:10141000242418FC007C0804040800485454542078
:1014200000043F444020003C4040207C001C204001
:10143000201C003C4030403C004428102844001C44
:10144000A0A0A07C004464544C441414141414143C
:10145000000000000000000000000000000000008C
:10146000000000F800000000000000333000000021
:1014700000100C06100C0600000000000000000028
:1014800040C07840C0784000043F04043F0404009A
:10149000007088FC08300000001820FF211E0000AA
:1014A000F008F000E018000000211C031E211E00BF
:1014B00000F00888700000001E2123241927211045
:1014C00010160E00000000000000000000000000E8
:1014D000000000E01804020000000007182040008F
:1014E00000020418E000000000402018070000007F
:1014F000404080F0804040000202010F01020200E3
:10150000000000F0000000000101011F01010100C6
:10151000000000000000000080B07000000000002B
:1015200000000000000000000001010101010101B4
:10153000000000000000000000303000000000004B
:101540000000000080601804006018060100000020
:1015500000E010080810E000000F102020100F001D
:10156000001010F8000000000020203F20200000A4
:1015700000700808088870000030282422213000FC
:1015800000300888884830000018202020110E0004
:101590000000C02010F8000000070424243F2400AD
:1015A00000F80888880808000019212020110E0082
:1015B00000E0108888180000000F112020110E0094
:1015C00000380808C83808000000003F000000008C
:1015D0000070880808887000001C222121221C004D
:1015E00000E010080810E0000000312222110F0076
:1015F000000000C0C000000000000030300000000B
:10160000000000800000000000008060000000007A
:101610000000804020100800000102040810200093
:1016200040404040404040000404040404040400DE
:101630000008102040800000002010080402010073
:10164000007048080808F000000000303601000073
:10165000C030C828E810E0000718272423140B0026
:101660000000C038E0000000203C230202273820A0
:1016700008F8888888700000203F202020110E0084
:10168000C03008080808380007182020201008007B
:1016900008F808080810E000203F202020100F0064
:1016A00008F88888E8081000203F20202320180030
:1016B00008F88888E8081000203F20000300000098
:1016C000C03008080838000007182020221E020039
:1016D00008F808000008F808203F210101213F20F8
:1016E000000808F8080800000020203F2020000023
:1016F00000000808F8080800C08080807F00000013
:1017000008F888C028180800203F2001263820004B
:1017100008F8080000000000203F202020203000B2
:1017200008F8F800F8F80800203F003F003F2000CC
:1017300008F830C00008F808203F200007183F00D4
:10174000E01008080810E0000F10202020100F0003
:1017500008F808080808F000203F210101010000F6
:10176000E01008080810E0000F18242438504F003B
:1017700008F8888888887000203F2000030C3020FB
:1017800000708808080838000038202121221C0039
:10179000180808F8080818000000203F2000000082
:1017A00008F808000008F808001F202020201F006B
:1017B0000878880000C83808000007380E010000CB
:1017C000F80800F80008F800033C0700073C030095
:1017D000081868808068180820302C03032C3020FB
:1017E0000838C800C83808000000203F200000006A
:1017F00010080808C83808002038262120201800C2
:10180000000000FE020202000000007F4040400095
:10181000000C30C000000000000000010638C000CD
:1018200000020202FE000000004040407F00000075
:10183000000004020202040000000000000000009A
:101840000000000000000000808080808080808098
:101850000002020400000000000000000000000080
:1018600000008080808000000019242222223F2076
:1018700008F8008080000000003F112020110E00B9
:101880000000008080800000000E11202020110048
:10189000000000808088F800000E112020103F20FA
:1018A0000000808080800000001F2222222213007E
:1018B000008080F0888888180020203F20200000C9
:1018C0000000808080808000006B9494949360007E
:1018D00008F8008080800000203F210000203F2089
:1018E00000809898000000000020203F2020000089
:1018F000000000809898000000C08080807F000079
:1019000008F8000080808000203F24022D30200055
:10191000000808F8000000000020203F2020000000
:101920008080808080808000203F20003F20003F1A
:101930008080008080800000203F210000203F2028
:101940000000808080800000001F202020201F00D9
:10195000808000808000000080FFA12020110E0008
:101960000000008080808000000E112020A0FF80F9
:10197000808080008080800020203F2120000100A6
:1019800000008080808080000033242424241900FB
:10199000008080E0808000000000001F2020000008
:1019A0008080000000808000001F202020103F2049
:1019B000808080000080808000010E3008060100D9
:1019C00080800080008080800F300C030C300F007E
:1019D00000808000808080000020312E0E312000A9
:1019E000808080000080808080818E7018060100D9
:1019F00000808080808080000021302C22213000F7
:101A000000000000807C020200000000003F404017
:101A100000000000FF00000000000000FF000000C8
:101A20000002027C800000000040403F00000000F7
:101A30000006010102020404000000000000000092
:101A4000000000000000000001020304060708096E
:101A50000000000001020304781A000800000020C2
:101A600030000000C4110008A81A0008300000204F
:101A700058040000D411000800000000AE0010401F
:101A8000B081FFA1A6A83FC8D300D580D805D9F161
:101A9000DA12D8308D14AF000100000010000000F1
:081AA0000000000000A24A044E
:04000005080000ED02
:00000001FF
