:040FFC003030300061
:100E9B00E4F53D753E04F53CF53B12100012173C92
:100EAB000522E52270020521D3940FE521942740FA
:100EBB0005E4F521F522752704752808AB22AA2134
:100ECB007D037F421212117526027527FF75280AC2
:100EDB0075291B752A02E4F52BF52C7B34FD7F1449
:100EEB001213617526087527FF75280A75295B751E
:100EFB002A02E4F52BF52C7B6A7D047F5A121361D1
:100F0B00E4FB7D02FF1215507B017D027F10121551
:100F1B00507B027D027F201215507B037D027F30B8
:100F2B001215507BFF7A0F79FC752810E4FD7F6456
:100F3B0012161AE53D2420FBE53E2404F5317532EB
:100F4B00FF75330975341BAD3EAF3D1212D3E53D32
:100F5B002420FBE53E2404F5317532FF753309750A
:100F6B00349BAD3EAF3D1212D3E53B7007E53C70B1
:100F7B000312147DE53B64017030E53E7005F53BD3
:100F8B00753C01E53EC394014020E53E2403FDE59D
:100F9B003D2420FBE53E2404F5317532FF75330A01
:100FAB0075349BAF3D1212D3153EE53C64016002D4
:100FBB00C1ABE53EB40403E4F53CE53ED3940340FA
:100FCB0002C1ABE53D2420FBE53E04F5317532FF54
:100FDB0075330A75349BAD3EAF3D1212D3053EC13E
:010FEB00AB5A
:10147D0020A60620A603753B0120A73120A72EE547
:10148D003D2418FFE53D2420FBE53E2408F531758C
:10149D0032FF75330A75349BAD3E1212D3E53DD341
:1014AD0094005003753D8074F8253DF53D20A52C25
:1014BD0020A529E53D2408FBE53E2408F5317532CC
:1014CD00FF75330A75349BAD3EAF3D1212D37408D0
:0D14DD00253DF53DC394804003E4F53D221C
:100003000000000000000000002F000000000700B7
:10001300070000147F147F1400242A7F2A12006231
:1000230064081323003649552250000005030000DD
:1000330000001C224100000041221C000014083E65
:1000430008140008083E0808000000A0600000082B
:10005300080808080000606000000020100804027F
:10006300003E5149453E0000427F4000004261513D
:100073004946002141454B31001814127F100027D7
:1000830045454539003C4A4949300001710905039A
:1000930000364949493600064949291E00003636CB
:1000A300000000005636000000081422410000142E
:1000B300141414140000412214080002015109060B
:1000C30000324959513E007C1211127C007F49498C
:1000D3004936003E41414122007F4141221C007FBD
:1000E30049494941007F09090901003E4149497ACB
:1000F300007F0808087F0000417F41000020404145
:100103003F01007F08142241007F40404040007FB0
:10011300020C027F007F0408107F003E4141413EF4
:10012300007F09090906003E4151215E007F09193C
:1001330029460046494949310001017F0101003F39
:100143004040403F001F2040201F003F4038403FB9
:10015300006314081463000708700807006151491D
:10016300454300007F41410000552A552A550000B0
:1001730041417F000004020102040040404040402E
:10018300000001020400002054545478007F4844C6
:10019300443800384444442000384444487F0038FD
:1001A3005454541800087E0901020018A4A4A47C26
:1001B300007F080404780000447D400000408084F0
:1001C3007D00007F102844000000417F4000007C38
:1001D30004180478007C0804047800384444443844
:1001E30000FC242424180018242418FC007C080490
:1001F300040800485454542000043F444020003C69
:100203004040207C001C2040201C003C4030403CEF
:10021300004428102844001CA0A0A07C004464547F
:100223004C441414141414140000000000000000C3
:100233000000000000000000000000F800000000C3
:10024300000000333000000000100C06100C060004
:10025300000000000000000040C07840C07840006B
:10026300043F04043F040400007088FC08300000CD
:10027300001820FF211E0000F008F000E018000025
:1002830000211C031E211E0000F0088870000000DE
:100293001E2123241927211010160E000000000030
:1002A3000000000000000000000000E0180402004D
:1002B300000000071820400000020418E0000000BE
:1002C3000040201807000000404080F080404000BC
:1002D3000202010F01020200000000F00000000012
:1002E3000101011F010101000000000000000000E6
:1002F30080B070000000000000000000000000005B
:1003030000010101010101010000000000000000E3
:10031300003030000000000000000000806018047E
:10032300006018060100000000E010080810E0005B
:10033300000F102020100F00001010F80000000024
:100343000020203F2020000000700808088870006B
:1003530000302824222130000030088888483000EB
:100363000018202020110E000000C02010F800000B
:1003730000070424243F240000F8088888080800A4
:100383000019212020110E0000E0108888180000B9
:10039300000F112020110E0000380808C83808008B
:1003A3000000003F0000000000708808088870000B
:1003B300001C222121221C0000E010080810E0008C
:1003C3000000312222110F00000000C0C000000015
:1003D300000000303000000000000080000000003A
:1003E3000000806000000000000080402010080032
:1003F30000010204081020004040404040404000FB
:1004030004040404040404000008102040800000D5
:100413000020100804020100007048080808F000DA
:100423000000003036010000C030C828E810E000AA
:100433000718272423140B000000C038E000000035
:10044300203C23020227382008F88888887000009F
:10045300203F202020110E00C03008080808380073
:10046300071820202010080008F808080810E000EA
:10047300203F202020100F0008F88888E80810008B
:10048300203F20202320180008F88888E80810005F
:10049300203F200003000000C03008080838000097
:1004A30007182020221E020008F808000008F80898
:1004B300203F210101213F20000808F8080800001F
:1004C3000020203F2020000000000808F808080052
:1004D300C08080807F00000008F888C028180800CA
:1004E300203F20012638200008F808000000000003
:1004F300203F20202020300008F8F800F8F80800FA
:10050300203F003F003F200008F830C00008F808F3
:10051300203F200007183F00E01008080810E00003
:100523000F10202020100F0008F808080808F0001A
:10053300203F210101010000E01008080810E0003D
:100543000F18242438504F0008F8888888887000D2
:10055300203F2000030C3020007088080808380072
:100563000038202121221C00180808F80808180068
:100573000000203F2000000008F808000008F808E9
:10058300001F202020201F000878880000C838089A
:10059300000007380E010000F80800F80008F80012
:1005A300033C0700073C03000818688080681808AC
:1005B30020302C03032C30200838C800C83808002A
:1005C3000000203F2000000010080808C838080079
:1005D3002038262120201800000000FE020202001D
:1005E3000000007F40404000000C30C000000000CD
:1005F300000000010638C00000020202FE000000F5
:10060300004040407F00000000000402020204009A
:1006130000000000000000000000000000000000D7
:1006230080808080808080800002020400000000BF
:1006330000000000000000000000808080800000B7
:100643000019242222223F2008F8008080000000A5
:10065300003F112020110E00000000808080000068
:10066300000E112020201100000000808088F80077
:10067300000E112020103F200000808080800000A9
:10068300001F222222221300008080F0888888180D
:100693000020203F20200000000080808080800018
:1006A300006B94949493600008F8008080800000AD
:1006B300203F210000203F20008098980000000088
:1006C3000020203F202000000000008098980000B8
:1006D30000C08080807F000008F8000080808000D8
:1006E300203F24022D302000000808F800000000FD
:1006F3000020203F202000008080808080808000B8
:10070300203F20003F20003F808000808080000049
:10071300203F210000203F200000808080800000D7
:10072300001F202020201F00808000808000000008
:1007330080FFA12020110E00000000808080800037
:10074300000E112020A0FF80808080008080800028
:1007530020203F2120000100000080808080800055
:100763000033242424241900008080E080800000CA
:100773000000001F20200000808000000080800017
:10078300001F202020103F20808080000080808078
:1007930000010E3008060100808000800080808008
:1007A3000F300C030C300F0000808000808080002D
:1007B3000020312E0E312000808080000080808058
:1007C30080818E7018060100008080808080800008
:1007D3000021302C2221300000000000807C020226
:1007E30000000000003F404000000000FF00000048
:1007F30000000000FF0000000002027C80000000F7
:100803000040403F00000000000601010202040412
:1008130000000000000000000000FEFE1212F2F2D1
:10082300121E1EF0F000FFFF000000000000000099
:100833000000000000000000101E0F3F3F01FFFFFB
:10084300313F1F0F4FC0FF7F00000000000000007A
:10085300000000000000000040445475E7E67454B3
:1008630044FCFC44C4C642400000000000000000F9
:10087300000000000000000020325ACAFF7F0A9ADD
:10088300F27F1F00FFFF00000000000000000000D7
:10089300000000000000000000020E8CE0E0C070C9
:1008A3003FCFC808283818000000000000000000EF
:1008B300000000000000000002027E7F81C060385B
:1008C3001E07071E3860C080000000000000000003
:1008D300000000000000000090D27634FFFF347661
:1008E300D2F0FF8F08F8F8080000000000000000B5
:1008F3000000000000000000829ADE776372DE8E43
:1009030080C0733F3F73C080000000000000000000
:1009130000000000000000000000000000000000D4
:100923000000000000000000FCFFFFFFFFFFFFFFCF
:10093300FFFFFFFFFFFFFCFC00F8F8C00000000012
:100943000000CCFCFCF8FCFCFFFFFFFFFFFFFF0FE8
:100953000D0D0D0D0D010101000F1F1F7FFFFEFE89
:10096300FFFFFFFFFFFFFFFFFFFFFFFF7F1F1F0FC4
:100973000F0F000000000000000000000000000353
:10098300FFFFDFDF070703030F0F0E0E000000005A
:100993000000000000000000000000000000000054
:1009A30000000000000000FCFCFFFFFBFFFFFFFF57
:1009B300FFFFFFFFFFFFFC00F8F8F8C00000000096
:1009C30000D8D8F8F8F8FEFFFFFFFFFFFFFFCFCFF7
:1009D300CD0D0D0F010101000F0F1F7F7FFFFEFEE5
:1009E300FFFFFFFFFFFFFFFFFFFFFF7F7F1F0003EF
:1009F30003000000000000000000000000000303EB
:100A0300071F1F1F1B0307FFFFFFC000000000009D
:100A130000000000000000000000000000000000D3
:100A2300000080C0E0381C080804CC6838306040FF
:100A330040C0800000000000404060701808486C0F
:100A43007446434140404040404040404040404065
:100A5300404041434648487080C0800000FEFFFF8D
:100A6300FFFE000080C08000FFFFFF0000FFFFFFCC
:100A7300FFFF0000FFFFFF001F3F3F3838FFFFFF6E
:100A8300FFFF0C0C0F0F07000000000000FFFFFF2B
:100A9300FFFF000000000000000000000000000055
:100AA3000000000000000000000000000000000043
:100AB3000000000000000000000000000000000033
:100AC3000000000000000000000000000000000023
:100AD3000000000000000000000000000000000013
:03179D0001200028
:1016D800EF4E60157D087C07ED1DAA0470011C4AB9
:0916E80070F6EF1F70EA1E80E7A6
:0116F10022D6
:09178D00D2A0D2A1C2A1C2A02287
:07179600D2A0C2A1D2A122E2
:10170C0012165A12178D7F7812169C12171F7F40D3
:03171C0012169C06
:05171F00D2A0C2A022CF
:10169C00C2A0E4FEAD07530580BD8004D2A1800238
:0E16AC00C2A1EF25E0FFD2A0C2A00EBE08E64C
:0116BA00220D
:10167C00AC0712178D7F7812169C12171FE4FF12FD
:10168C00169C12171FAF0412169C12171F021796E6
:100FEC00AC0712170FAF0412169C12171F0217969C
:1016BB00EB24B0FFE4FD1216CEE4FDFF1216CEE4D0
:0316CB00FD7F1090
:0A16CE00ED6003020FEC12167C22FF
:0216F200AB0744
:1016F400E4FAEA1216BCE4F9AF037D011216CE092E
:07170400B980F50ABA08EBF9
:01170B0022BB
:10165A00AB07ED24B0FFE4FD1216CEEB54F0C454F0
:10166A000F4410FFE4FD1216CEEB540FFFE4FD0207
:02167A0016CE8A
:10176A00E4FD7F8D1216CEE4FD7F141216CEE4FD41
:05177A007FAF0216CE56
:0E177F00E4FD7F8D1216C7E4FD7FAE0216CE8C
:10173C00E4FB1216BBE4FA7D01E4FF1216CE0ABAE2
:06174C0080F50BBB08EC68
:011752002274
:10175300E4FB1216BBE4FA7D017F011216CE0ABA2E
:0617630080F50BBB08EC51
:01176900225D
:0610B500AA07A905AF0324
:1010BB00E4F530FBEF24E0F530EAD3947F4004E411
:1010CB00FA0909E52F64107060AF02AD0112165AD0
:1010DB00E4FB75F010E530A42BF582E435F0F583D5
:1010EB00E582242BF582E5833402F583E493FF7DBF
:1010FB00011216CE0BBB08DAAF02E904FD12165A29
:10110B00E4FB75F010E530A42BF582E435F0F583A4
:10111B00E5822433F582E5833402F583E493FF7D86
:10112B00011216CE0BBB08DA22AF02AD0112165A12
:10113B00E4FB75F006E530A42403F582E5F03400FA
:10114B00F583E5822BF582E43583F583E493FF7D0C
:08115B00011216CE0BBB06DAEF
:011163002269
:041724008F2CA90558
:101728007F017E00AD0119ED6009AD2C7C0012111E
:03173800AA80F193
:01173B00228B
:081211008F238D248A258B2612
:10121900E4F52BF529E529C39527400241BAC3E531
:1012290027952914FD7F0A121724AC25AD26CFCDA9
:10123900CFCECCCE1211BC7C007D0A1211BC8D2AF6
:10124900E52B7034E52714FFE529C39F502AE52AC9
:101259007023E528B40806C3132402800AE528642C
:1012690010704AE528C3138529F0A42523FF852892
:101279002F7B208033752B01E528B40815C313246F
:10128900028529F0A42523FFE52A2430FB85282F90
:101299008016E528B41016C3138529F0A42523FF69
:1012A900E52A2430FB85282FAD241210B5052941E4
:0112B9001E16
:0112BA002211
:0A161A008F238D248B258A26892753
:10162400E4F529AB25AA26A927852982758300120A
:10163400117DFB602085282FAD24AF231210B574D3
:10164400082523F523D394784007E4F523052405DE
:0516540024052980CEF1
:01165900226E
:061550008F23AA03A90588
:10155600E4F52412165AE4FBEA75F040A4241BF5C0
:1015660082E43408F583E5822BF582E43583F5833E
:10157600E493FF7D011216CE05240BBB10DAE904B5
:10158600FDAF2312165AE4FBEA75F040A4243BF59E
:1015960082E43408F583E5822BF582E43583F5830E
:0E15A600E493FF7D011216CE05240BBB10DA74
:0115B4002214
:0415B5008F088B0A06
:1015B900E4F50FF510E50B5407700BE50B13131346
:1015C900541FF512800AE50B131313541F04F51267
:1015D9008D12E512C3950B5037AD12AF0812165A8A
:1015E900850811E511C3950A5022AB0CAA0DA90E65
:1015F9000510E510AE0F7002050F14F5828E8312E7
:10160900117DFF7D011216CE051180D7051280C20A
:0116190022AE
:0414EA008F138B15BC
:1014EE00E4F51AF51BE5165407700BE516131313E6
:1014FE00541FF51C800AE516131313541F04F51C14
:10150E008D1CE51CC395165038AD1CAF1312170C6D
:10151E00AC13ECC395155022AB17AA18A919051BCD
:10152E00E51BAE1A7002051A14F5828E8312117D18
:10153E00FF12169C12171F0C80D8121796051C80CE
:01154E00C1DB
:01154F002279
:1012BB00E52D2523FFE52D2525FB852631852732B9
:0812CB00852833852934AD2488
:0412D3008F2E8B309F
:1012D700E4F535F53685323885333985343A8D3737
:1012E700E537C395315072AD37AF2E12170CAF2EBD
:1012F700EFC39530505CAB38AA39A93A121164F59F
:1013070020A20792A1D2A0C2A0A20692A1D2A0C2F7
:10131700A0A20592A1D2A0C2A0A20492A1D2A0C26B
:10132700A0A20392A1D2A0C2A0A20292A1D2A0C25F
:10133700A0A20192A1D2A0C2A0A20092A1D2A0C253
:10134700A07401253AF53AE43539F53912171F0F1C
:09135700809E121796053741E74C
:01136000226A
:061361008F238D248B2573
:10136700E52A64027036E52DD394005003752D806D
:10137700E52DC3940840251212BBE52D2525FF2531
:1013870025C39523FB8526317532FF75330A7534DE
:101397009BAD241212D374F8252DF52DE52A64038D
:1013A700703AE52DC394804003E4F52DE52DD394E1
:1013B7008050291212BBE52D2523FFE52D25252574
:1013C70025C39523FB8526317532FF75330A75349E
:1013D7009BAD241212D37408252DF52DAE2BAF2CFF
:0A13E7007C007D0A1211AA0216D83C
:101000007F647E001216D8E4FD7FAE1216C1E4FDA7
:101010007F401216CEE4FD7FB01216CEE4FD7F8134
:101020001216CEE4FD7FFF1216CEE4FD7FA112164C
:10103000CEE4FD7FA61216CEE4FD7FA81216CEE404
:10104000FD7F3F1216CEE4FD7FC81216CEE4FD7F71
:10105000D31216CEE4FDFF1216CEE4FD7FD5121694
:10106000CEE4FD7F801216CEE4FD7FD81216CEE4CA
:10107000FD7F051216CEE4FD7FD91216CEE4FD7F6A
:10108000F11216CEE4FD7FDA1216CEE4FD7F1212C5
:1010900016CEE4FD7FDB1216CEE4FD7F301216CEB5
:1010A000E4FD7F8D1216CEE4FD7F141216CEE4FD12
:0510B0007FAF0216CE27
:030000000213F1F7
:0C13F100787FE4F6D8FD75813E021438C8
:10116400BB010689828A83E0225002E722BBFE0289
:09117400E32289828A83E49322BC
:10117D00BB010CE58229F582E5833AF583E0225027
:10118D0006E92582F8E622BBFE06E92582F8E22271
:0D119D00E58229F582E5833AF583E493228B
:1011AA00EF8DF0A4A8F0CF8CF0A428CE8DF0A42E59
:0211BA00FE2213
:1011BC00BC000BBE0029EF8DF084FFADF022E4CC17
:1011CC00F875F008EF2FFFEE33FEEC33FCEE9DECE0
:1011DC00984005FCEE9DFE0FD5F0E9E4CEFD22ED26
:1011EC00F8F5F0EE8420D21CFEADF075F008EF2F70
:1011FC00FFED33FD4007985006D5F0F222C398FD61
:05120C000FD5F0EA22FD
:1013FD00020E9BE493A3F8E493A34003F68001F25D
:10140D0008DFF48029E493A3F85407240CC8C333F0
:10141D00C4540F4420C8834004F456800146F6DFBF
:10142D00E4800B010204081020408090179DE47E9B
:10143D00019360BCA3FF543F30E509541FFEE493B4
:10144D00A360010ECF54C025E060A840B8E493A37B
:10145D00FAE493A3F8E493A3C8C582C8CAC583CAA6
:10146D00F0A3C8C582C8CAC583CADFE9DEE780BE5E
:0117A0000048
:00000001FF
