:10061A00120F15E54314B4100050F890063375F024
:10062A0003A4C58325F0C583730206630206680224
:10063A00066D02067202067702067C02068102062F
:10064A008602068B02069002069502069A02061D8B
:10065A0002061D02061D0206A0120BFC80B5120F2F
:10066A002580B0120DFD80AB120F3580A6120C3515
:10067A0080A1120F45809C12000E809712089E805E
:10068A0092120F03808D120A7B8088120EEE8083ED
:0C069A00120CD202061D120CA002061D5C
:03095100011F0182
:10090500BF0103751F01E51F6401702E30B1093069
:10091500B00630B20320B3227FE87E03120FA8E4AD
:10092500F51F20B1037F642220B0037F652220B22A
:10093500037F662220B3127F672230B10C30B009E5
:0B09450030B20630B303751F017F00C5
:010950002284
:10073200E4F50875900FE590640F60777FE87E031B
:10074200120FA8E590640F606A75900FAF90EF24C6
:10075200F5601024FE6011146013240770127543B3
:1007620001800D75430280087543038003754304BD
:100772007590F0AF90EF2450601124E0601124F0E6
:10078200601124707013854343800E7404800674D4
:10079200088002740C2543F543C3E508648094B2D3
:1007A2005011E59064F0600B7FE87E03120FA805FC
:0307B2000880E6D6
:0107B5002221
:10095400014300114C3F065B4F666D7D077F6F7747
:060964007C395E79710090
:0B0FA800EF1FAC0670011E4C70F6221B
:100BFC0075A0FE7F207E4E120FA8E4F50DAF0D748C
:100C0C0001A807088002C333D8FCF4F5A07F207E2E
:100C1C004E120FA8E5436401600475A0FF22050D78
:090C2C00E50DC3940840D680D107
:100F1500438901758C8A758AD0D2A9D2AFD28C2229
:03000B0002099D4A
:10099D00C0E0C0F0C083C082C0D075D000C000C020
:0D09AD0001C002C003C004C005C006C007A1
:1009BA00758C8A758AD00563E563B4010675630090
:0309CA00120732DF
:1009CD00D007D006D005D004D003D002D001D0007E
:0B09DD00D0D0D082D083D0F0D0E03228
:100F2500B2A57F0A7E00120FA8E543640260F12294
:1007B600E4F50DE50DB40800504D9007C7F828285C
:1007C600730207DF0207E30207EB0207EF0207F7F0
:1007D6000207FB020803020807C2A28002D2A2C2D5
:1007E600A3C2A48022C2A28002D2A2D2A3C2A480A3
:1007F60016C2A28002D2A2C2A3D2A4800AC2A2803A
:1008060002D2A2D2A3D2A4C37407950D2444F8E65B
:10081600F5807F647E00120FA8E4F580050DE50DD6
:05082600C39408408EA0
:01082B0022AA
:100DFD00E4FF744C2FF8E6FE74442FF8A6060FBFDF
:0E0E0D0008F01207B6E543640360F7E4F580D1
:010E1B0022B4
:100CFF00C2B6C2B5E4FEEFC4131313540124FF921E
:100D0F00B4EF25E0FFD2B60000C2B60EBE08E7D2A0
:050D1F00B50000C2B5A3
:010D240022AC
:100C3500E4F50DE4F50DAF0D7480A807088002C337
:100C450013D8FCFF120CFFE4F5807F987E3A120F53
:100C5500A8E543640560047580FF22050DE50DC315
:060C6500940840D280CD8E
:100CA000E4F50DC2AF7590FFE4FF120905BF640AB9
:100CB000050DE50DB40203E4F50DE50D7004C290D9
:100CC0008007E50DB40102D290E543641060D9C2FB
:010CD0009093
:010CD1002200
:100A7B00D290C291D292D2937FC87E00120FA8D28D
:100A8B0090D291D292C2937FC87E00120FA8C290CF
:100A9B00D291D292D2937FC87E00120FA8D290D25D
:100AAB0091C292D2937FC87E00120FA8E543640ACD
:030ABB0060BE22F8
:03096A0001640025
:050F7400120F79D2A16B
:080F79007F017E02DEFEDFFABB
:010F8100224D
:0F0F6500D2A0120F74C2A0120F79C2A1020F798D
:0A0FB300C2A0120F74D2A0020F7941
:020B4200AD07FD
:100B4400E4FBFAEDC4131313540124FF92A0ED2522
:100B5400E0FD120F74C2A1120F790BBB08E5D2A0FD
:100B6400120F79D2A130A00F0AEAD394C840F6C27A
:0E0B7400A1120F797F0022C2A1120F797F011A
:010B82002250
:100D2500E4FDFCD2A0120F79D2A1120F79EC25E0D7
:100D3500FCA2A0E4334204120F79C2A1120F790D6F
:050D4500BD08E5AF044C
:010D4A002286
:100E8F00AC05A907120F657FA0120B42AF01120B21
:090E9F0042AF04120B42020FB332
:020DDB00AC0763
:100DDD00120F657FA0120B42AF04120B42120F656A
:0F0DED007FA1120B42120D25AD07120FB3AF05F8
:010DFC0022D4
:100BC100E4F50DFF1209058F0DE50DB46407AD6461
:100BD1007F01020E8FE50DB46502801BE50DB46641
:100BE100087F01120DDB8F6422E50DB4670C0564EB
:0A0BF100E564D394FF4003E4F564CB
:010BFB0022D7
:10082C00E564FB7C037DE8FF7E001202DB744C2F39
:10083C00F8E6F5447C037DE8AF037E001202DBAAE8
:10084C0004AB057D647C00AF03AE021202DB744C7A
:10085C002FF8E6F5457D647C00AF03AE021202DB97
:10086C00AA04AB057D0A7C00AF03AE021202DB7456
:10087C004C2FF8E6F5467D0A7C00AF03AE0212025F
:10088C00DB744C2DF8E6F547E4F548F549F54AF5E7
:02089C004B22ED
:100EEE00C2AF7590FF120BC112082C1207B6E54364
:050EFE00640B60F1220D
:100E1C00D3EF9400EE940040147D6E7C00ED1D70B9
:0D0E2C00011CED4C70F7EF1F70E61E80E317
:010E39002296
:100D4B00C2B77B46AF031BEF70FAD2B7E4FB30B7E9
:100D5B00117F017E00120E1C0BEBD3940540EF7F2D
:040D6B0000227F01E2
:010D6F002261
:0C0ABE00120D4B7F017E00120E1C7FCC3D
:100ACA00E4FBFAC2B7050FE50F7002050EEF1392A9
:100ADA00B7750E00750F06E50F150FAC0E700215EF
:100AEA000E4C70F3D2B7EFC313FF0BBB00010AEB36
:050AFA0064084A70CE03
:010AFF0022D4
:100B83007D087C00C2B70FBF0000D2B70FBF0000C3
:100B93000FBF0000A2B7E433C43333335480FBE9FF
:100BA300C3134BF97E007F04EF1FAA0670011E4A90
:0D0BB30070F6ED1D70011CED4C70C9AF0116
:010BC0002212
:080FC600120ABE7F44020ACAB0
:080FCE00120ABE7FBE020ACA2E
:100EC100E4FFFE120FC6120FCE120B838F0D120B11
:060ED10083EFFEE50DFFBA
:010ED70022F8
:04049A00AB07AA06FC
:10049E00C3EA648094805010754440EB1B70011ABF
:1004AE006303FF6302FF8003E4F544AD03AC02EC8B
:1004BE001202218F108E0F8D0E8C0DE4FFFE7DC863
:1004CE007C40AB10AA0FA90EA80D120116E4FBFA80
:1004DE00F9783F12002512025AAA06AB077C277D37
:1004EE0010AF03AE02120330744C2FF8E6F5457CC4
:1004FE00277D10AF03AE021203307E037FE8CFCD0F
:10050E00CFCECCCE120330744C2FF8E6F5467C03DA
:10051E007DE8AF03AE021203307E007F64CFCDCFF5
:10052E00CECCCE120330744C2FF8E64480F5477CC7
:10053E00007D64AF03AE021203307E007F0ACFCD82
:10054E00CFCECCCE120330744C2FF8E6F548AE0267
:10055E00AF037C007D0A120330744C2DF8E6F5498A
:05056E00E4F54AF54B25
:010573002265
:100F3500120EC112049A1207B6E543640460F12249
:0E0F820081838587898B8D80828486888A8C06
:09096D000711000012070506162F
:100C6B00C2B500C2B600D2B500E4FEEF1392B4EFEA
:100C7B00C313FFD2B600C2B6000EBE08EEE4FEED03
:100C8B001392B4EDC313FDD2B600C2B6000EBE086C
:040C9B00EEC2B500F0
:010C9F002232
:1009E800C2B500C2B600D2B500E4FDEF1392B4EF71
:1009F800C313FFD2B600C2B6000DBD08EE00E4FD79
:100A0800A2B4E433FFC43333335480FCEEC3134C35
:100A1800FED2B600C2B6000DBD08E5C2B500D2B61A
:090A280000C2B400D2B400AF0614
:010A310022A2
:100DB800E4FD7F8E120C6BE4FCEC900F8993FF74BA
:100DC800112CF8E6FD120C6B0CBC07ED7D807F8EB4
:030DD800020C6B9F
:100ED800E4FBEB900F8293FF1209E874112BF8A63C
:050EE800070BBB07ED44
:010EED0022E2
:100A3200120ED8E513C4540F244CF8E6F544E5131E
:100A4200540F244CF8E6F545754640E512C4540FA0
:100A5200244CF8E6F547E512540F244CF8E6F54825
:100A6200754940E511C4540F244CF8E6F54AE511E6
:090A7200540F244CF8E6F54B2268
:100F4500120DB8120A321207B6E543640660F422A0
:100E5800C2B6E4FEEFC4131313540124FF92B4EF97
:0B0E680025E0FFC2B6D2B60EBE08E9BE
:010E7300225C
:100D7000E4FFFEC2B6FDFCEF25E0FFEE33FED2B687
:100D8000C2B6A2B7E43342070DBD00010CED640CFE
:030D90004C70E4C0
:010D9300223D
:100EA800C2B6C2B5120E587F06DFFED2B60000C227
:080EB800B60000120D70D2B566
:010EC000220F
:10057400E565B4320CE4F5657F94120EA8AA06ABC7
:100584000705657C037DE8AF03AE021202DB744C01
:100594002FF8E6F5447C037DE8AF03AE021202DBDC
:1005A4007E007F64CFCDCFCECCCE1202DB744C2F35
:1005B400F8E6F5457C037DE8AF03AE021202DB7E6C
:1005C400007F64CFCDCFCECCCE1202DB7E007F0A7B
:1005D400CFCDCFCECCCE1202DB744C2FF8E6F5464D
:1005E4007C037DE8AF03AE021202DB7E007F64CFA2
:1005F400CDCFCECCCE1202DB7E007F0ACFCDCFCEC4
:10060400CCCE1202DB744C2DF8E6F547E4F548F540
:0506140049F54AF54B19
:0106190022BE
:0D000E001205741207B6E543640760F42282
:100F5500438910758DFF758BFFD2ABD2AFD28E2230
:03001B00020E745E
:100E7400C0E0758DFF758BFF0562E5627002056148
:0B0E84000560E5607002055FD0E03201
:10089E00120F55D3E5609464E55F9400401BE4F5B8
:1008AE005FF560300008055EE55E7002055D2000B4
:1008BE0008E55E155E7002155DE55EB4E807E55D60
:1008CE00B40302C200E55E455D7002D200D3E5625C
:1008DE0094E8E56194034005E4F561F562C3E562D1
:1008EE00955EE561955D5004D2A18002C2A1E543FB
:0708FE006408609FC28E2216
:090FBD00D288D2A8D2AFD2B22230
:0300030002037481
:10037400C0E0C0F0C083C082C0D075D000C000C04F
:0D03840001C002C003C004C005C006C007D0
:10039100751E007FBC7E02120FA830B20302047FDB
:1003A100750B03750CE820B21CD3E50C9400E50B2A
:1003B100940040117F017E00120FA8E50C150C700E
:1003C100E5150B80E120B20302047F750B01750C6A
:1003D100F430B21CD3E50C9400E50B940040117F7E
:1003E100017E00120FA8E50C150C70E5150B80E1DC
:1003F100750A00750900750B00750C3C20B21CD301
:10040100E50C9400E50B940040117F017E00120F72
:10041100A8E50C150C70E5150B80E1750B01750C49
:10042100F430B225D3E50C9400E50B9400401A7F1B
:100431000A7E00120FA8051EE50C150C7002150BA3
:10044100E51ED3941E40DA80357418250AF8C000E1
:10045100E6C313D000F6E51EC394084009741825BD
:100461000AF8E64480F6751E000509E509C39408FB
:0E0471004084050AE50AC3940450030203F414
:10047F00D007D006D005D004D003D002D001D000D1
:0B048F00D0D0D082D083D0F0D0E0327B
:100D9400E51AC4540F244CF8E6F544E51A540F241C
:100DA4004CF8E6F545754676E4F547F548F549F51A
:040DB4004AF54B228F
:100F0300120FBD120D941207B6E543640960F4C2D3
:020F1300A82212
:100976001121204B41492054554F205A48452056B5
:100986003220001132202048656C6C6F20576F7240
:060996006C64212020002A
:100B0000C2A58B807F017E00120B29D2A77F057EB4
:100B100000120B29C2A7EBC454F0F5807F017E00C0
:090B2000120B29D2A77F057E000B
:100B2900D3EF9400EE9400400F7DC77C01DCFEDD1D
:080B3900FAEF1F70EB1E80E8CB
:010B41002291
:0C0F9000AB07C2A7C2A6120B00C2A7222A
:0C0F9C00AB07C2A7D2A6120B00C2A7220E
:100E3A007F32120F907F28120F907F0C120F907F33
:0E0E4A0006120F907F01120F907F80020F9012
:100CD200120E3AE4FA74212AF8E6FF120F9C0ABABD
:100CE20010F37FC0120F90E4FA74322AF8E6FF1272
:0D0CF2000F9C0ABA10F3E543640C60FA226F
:10001E000202C6E86480F8E933E83360110460F048
:10002E00ED33EC337009E8FCE9FDEAFEEBFF220448
:10003E0060DED3EB9FEA9EE99DE8C2E78CF0C2F743
:10004E0095F0400CE8CCF8E9CDF9EACEFAEBCFFB0F
:10005E0012029185D0F05804700320D5B3E80470D5
:10006E00075002B2D50202D092D5EC0460F7E4CC70
:10007E00C0E0C398F8603B94186008400DD0E0FBD8
:10008E000202A8E4FBFAC9FC8028E830E406E4C9C1
:10009E00FBE4CAFCE830E305E4C9CACBFCE854072C
:1000AE006010F8C3E913F9EA13FAEB13FBEC13FC37
:1000BE00D8F130F52FC3E49CFCEF9BFFEE9AFEEDDA
:1000CE0099FDD0E0FBEF4E4D4C701222DB03020285
:1000DE00CDEC2CFCEF33FFEE33FEED33FDED30E7D0
:1000EE00EB0202A8EF2BFFEE3AFEED39FDD0E0FB5E
:1000FE0050130BBB00030202D0ED13FDEE13FEEF07
:08010E0013FFEC13FC0202A830
:10011600EC4D6011E8497017ED33EC3304600DE4E3
:10012600FCFFFEFD22E933E8330470F80202C61232
:10013600029158046009E4CC248150062850090233
:1001460002D02840030202CDC0E0EB4A7044B980D9
:1001560006D0E0FB0202BCEF4E701CBD8008EBFF30
:10016600EAFEE9FD80EBE98DF0A4FEE5F00201FF71
:10017600E9CDF9EAFEEBFFEF89F0A4FCE5F0CE89C4
:10018600F0A42EFFE435F0CD89F0A42DFEE435F081
:100196008067EF4E7005BD80D780C3EF8BF0A4ACAF
:1001A600F0EE8BF0A42CFCE435F0F8EF8AF0A42CEA
:1001B600E5F038FCE433CB8DF0A42CFCE5F03BF8FD
:1001C600EE8AF0A42CFCE5F038F8E433CF89F0A4ED
:1001D6002CFCE5F038CF3400CE89F0A42FFFE5F0F3
:1001E6003EFEE433C98DF0A42EFEE5F039CD8AF04B
:1001F600A42FFFE5F03EFEE43DFD33D0E0FB5007C3
:100206000BBB000F0202D0EC2CFCEF33FFEE33FEEB
:06021600ED33FD0202A819
:10021C0075F020800E75F010800575F0087D007E5D
:10022C00007F003392D530D503120366EC334010B7
:10023C00EF33FFEE33FEED33FDEC33FCD5F0ED2266
:0E024C00E5F0247EA2D513CC92E7CDCEFF22A2
:10025A00EDD2E7CD33EC3392D524814006E4FFFE9C
:10026A00FDFC22FCE4CFCECDCC24E0501174FF80FB
:10027A00EDC3CC13CCCD13CDCE13CECF13CF047098
:07028A00F030D5DE0203662F
:10029100E9D2E7C933E833F892D5EDD2E7CD33ECB3
:0702A10033FC5002B2D5222C
:1002A800EC30E7100FBF000C0EBE00080DBD0004B7
:1002B8000BEB6014A2D5EB13FCED92E7FD2274FF63
:1002C800FCFDFEFF22E480F8A2D574FF13FC7D80BC
:0302D800E480EFD0
:030000000206A64F
:0C06A600787FE4F6D8FD7581650206ED52
:1002DB00BC000BBE0029EF8DF084FFADF022E4CC07
:1002EB00F875F008EF2FFFEE33FEEC33FCEE9DECD0
:1002FB00984005FCEE9DFE0FD5F0E9E4CEFD22ED16
:10030B00F8F5F0EE8420D21CFEADF075F008EF2F5F
:10031B00FFED33FD4007985006D5F0F222C398FD50
:05032B000FD5F0EA22ED
:10033000C2D5EC30E709B2D5E4C39DFDE49CFCEEE8
:1003400030E715B2D5E4C39FFFE49EFE1202DBC383
:10035000E49DFDE49CFC80031202DB30D507C3E47E
:060360009FFFE49EFE2257
:0E036600C3E49FFFE49EFEE49DFDE49CFC22A8
:1006B20002061AE493A3F8E493A34003F68001F23E
:1006C20008DFF48029E493A3F85407240CC8C33349
:1006D200C4540F4420C8834004F456800146F6DF18
:1006E200E4800B0102040810204080900951E47E4E
:1006F200019360BCA3FF543F30E509541FFEE4930D
:10070200A360010ECF54C025E060A840B8E493A3D3
:10071200FAE493A3F8E493A3C8C582C8CAC583CAFE
:10072200F0A3C8C582C8CAC583CADFE9DEE780BEB6
:01099C00005A
:00000001FF
