:10038C00FF9900000081C3E701020408102040809F
:10039C00FFFFFFFFFFFFFFFFFF81E7E7E7E7E781D5
:1003AC00FF9999999999C3E7FFFFDB8181C3E7FF17
:1003BC00CDB4B5B5B5B5B5C8FFE7DBDBC7DFDBE75B
:1003CC00FFE7DBDBE7DBDBE7FFC3DBDFEFF7F7F7B1
:1003DC00FFE7DBFBE3DBDBE7FFC3FBFBE7DFDBE795
:1003EC00FFEFE7EBEDC3EFEFFFE7DBDFEFDFDBE783
:1003FC00FFE7DBDFEFF7FBC3FFEFE3EFEFEFEFC35D
:10040C00FFE7DBDBDBDBDBE7FFE7FFFFFFFFFFFFEC
:10041C00DBE7FFFFFFFFFFFF99E7FFFFFFFFFFFF9A
:10042C009966FFFFFFFFFFFF99667EFFFFFFFFFF4F
:10043C0099667E7EFFFFFFFF99667E7EBDFFFFFF04
:10044C0099667E7EBDDBFFFF99667E7EBDDBE7FF96
:10045C00FF99667E7EBDDBE7FF998181C3E7FFFFD5
:08046C00FFFF998181C3E7FF46
:06047400ED90039493FFDC
:10047A00C2B5C2B6E4FEEFC4131313540124FF92AB
:10048A00B4EF25E0FFD2B60000C2B60EBE08E7D22E
:05049A00B50000C2B531
:01049F00223A
:0F050300ED93F58090039CED93F5907F647E005F
:0B051200EF1FAC0670011E4C70F622BB
:1006D800E4FD12047490038C1205037580FF0DBDB0
:0206E80008F018
:0106EA0022ED
:10051D00E4FD120474ED90039C93F58012050C75A7
:06052D0080FF0DBD08EC8B
:0105330022A5
:1006EB00E4FD1204749003A41205037580FF0DBD85
:0206FB0008F005
:0106FD0022DA
:10053400E4FD120474ED9003AC1205047580FF0D04
:03054400BD08EF00
:010547002291
:10054800E4FD120474ED9003B41205047580FF0DE8
:03055800BD08EFEC
:01055B00227D
:10055C00E4FD120474ED9003BC1205047580FF0DCC
:03056C00BD08EFD8
:01056F002269
:10057000E4FD120474ED9003C41205047580FF0DB0
:03058000BD08EFC4
:010583002255
:10058400E4FD120474ED9003CC1205047580FF0D94
:03059400BD08EFB0
:010597002241
:10059800E4FD120474ED9003D41205047580FF0D78
:0305A800BD08EF9C
:0105AB00222D
:1005AC00E4FD120474ED9003DC1205047580FF0D5C
:0305BC00BD08EF88
:0105BF002219
:1005C000E4FD120474ED9003E41205047580FF0D40
:0305D000BD08EF74
:0105D3002205
:1005D400E4FD120474ED9003EC1205047580FF0D24
:0305E400BD08EF60
:0105E70022F1
:1005E800E4FD120474ED9003F41205047580FF0D08
:0305F800BD08EF4C
:0105FB0022DD
:1005FC00E4FD120474ED9003FC1205047580FF0DEC
:03060C00BD08EF37
:01060F0022C8
:10061000E4FD120474ED9004041205047580FF0DCE
:03062000BD08EF23
:0106230022B4
:10062400E4FD120474ED90040C1205047580FF0DB2
:03063400BD08EF0F
:0106370022A0
:1006FE00E4FD12047490041412050A7590FF0DBDEA
:02070E0008F0F1
:0107100022C6
:10063800E4FD120474ED90041C12050B7590FF0D77
:03064800BD08EFFB
:01064B00228C
:10064C00E4FD120474ED90042412050B7590FF0D5B
:03065C00BD08EFE7
:01065F002278
:10066000E4FD120474ED90042C12050B7590FF0D3F
:03067000BD08EFD3
:010673002264
:10067400E4FD120474ED90043412050B7590FF0D23
:03068400BD08EFBF
:010687002250
:10068800E4FD120474ED90043C12050B7590FF0D07
:03069800BD08EFAB
:01069B00223C
:10069C00E4FD120474ED90044412050B7590FF0DEB
:0306AC00BD08EF97
:0106AF002228
:1006B000E4FD120474ED90044C12050B7590FF0DCF
:0306C000BD08EF83
:0106C3002214
:1006C400E4FD120474ED90045412050B7590FF0DB3
:0306D400BD08EF6F
:0106D7002200
:1004A000E4FD120474ED90045493F590ED9004640F
:1004B00093F58012050E7580FF7590FF0DBD08E263
:0104C0002219
:1004C100E4FD120474ED90045C93F590ED90046CDE
:1004D10093F58012050E7580FF7590FF0DBD08E242
:0104E10022F8
:1004E200E4FD120474ED90038C93F590ED90039C5F
:1004F20093F58012050E7580FF7590FF0DBD08E221
:0105020022D6
:10000300E4F50812055C0508E508C3941E40F4E412
:10001300F50812051D0508E508C3941E40F4E4F530
:10002300081205700508E508C3941E40F4E4F508BA
:1000330012051D0508E508C3941E40F4E4F50812F3
:1000430005840508E508C3941E40F4E4F508120589
:100053001D0508E508C3941E40F4E4F5081205984D
:100063000508E508C3941E40F4E4F50812051D05D0
:1000730008E508C3941E40F4E4F5081205AC05082E
:10008300E508C3941E40F4E4F50812051D0508E5D0
:1000930008C3941E40F4E4F5081205C00508E508FA
:1000A300C3941E40F4E4F50812051D0508E508C3D2
:1000B300941E40F4E4F5081205D40508E508C3943A
:1000C3001E40F4E4F50812051D0508E508C3941E57
:1000D30040F4E4F5081205E80508E508C3941E405A
:1000E300F4E4F50812051D0508E508C3941E40F461
:1000F300E4F5081205FC0508E508C3941E40F4E482
:10010300F50812051D0508E508C3941E40F4E4F53F
:10011300081206100508E508C3941E40F4E4F50828
:1001230012051D0508E508C3941E40F4E4F5081202
:1001330006240508E508C3941E40F4E4F5081205F7
:100143001D0508E508C3941E40F4E4F5081206D81B
:100153000508E508C3941E40F4E4F50812054805B4
:1001630008E508C3941E40F4E4F5081206D8050810
:10017300E508C3941E40F4E4F5081205480508E5B4
:1001830008C3941E40F4E4F5081206D80508E508F0
:10019300C3941E40F4E4F5081205480508E508C3B6
:1001A300941E40F4E4F5081206D80508E508C39444
:1001B3001E40F4E4F5081205480508E508C3941E3B
:1001C30040F4E4F5081206D80508E508C3941E4078
:1001D300F4E4F5081204E20508E508C3941E40F4AC
:1001E300E4F5081206D80508E508C3941E40F4E4B4
:1001F300F5081204E20508E508C3941E40F4E4F58B
:10020300081206D80508E508C3941E40F4E4F5086F
:100213001204E20508E508C3941E40F4E4F508124D
:1002230006D80508E508C3941E40F4E4F508120453
:10023300E20508E508C3941E40F4E4F5081206EB52
:100243000508E508C3946440F4E4F50812051D05A8
:1002530008E508C3941E40F4E4F5081206D805081F
:10026300E508C3946440F4E4F50812051D0508E5A8
:1002730008C3941E40F4E4F5081205340508E508A4
:10028300C3946440F4E4F50812051D0508E508C3AA
:10029300941E40F4E4F5081206FE0508E508C3942D
:1002A3001440F4E4F5081206380508E508C394146D
:1002B30040F4E4F50812064C0508E508C39414401D
:1002C300F4E4F5081206600508E508C3941440F445
:1002D300E4F5081206740508E508C3941440F4E431
:1002E300F5081206880508E508C3941440F4E4F5FC
:1002F3000812069C0508E508C3941440F4E4F508C5
:100303001206B00508E508C3941440F4E4F5081296
:1003130006C40508E508C3941440F4E4F508120480
:10032300A00508E508C3943C40F4E4F5081204C1B1
:100333000508E508C3941E40F4E4F5081204A0057B
:1003430008E508C3941E40F4E4F5081204C1050847
:10035300E508C3941E40F4E4F5081204A00508E57B
:1003630008C3941E40F4E4F5081204C10508E50827
:10037300C3941E40F4E4F508E508C39496400302D1
:0903830000031204A0050880EF3C
:03000000020711E3
:0C071100787FE4F6D8FD75810802000333
:00000001FF
