:10113900420046000C42004DFC1742004F0000429D
:101149000051000042000400015C0006FFFFFFFFA0
:10115900FFFFFFFFFFFFFFFFFFFFFFFFFFFFFFFF96
:10116900FFFFFFFFFFFFFFFF5C0022FFFFFFFFFF05
:10117900FFFFFFFFFFFFFFFFFFFFFFFFFFFFFFFF76
:10118900FFFFFFFFFFFFFF4400420003000742008B
:081199003E0000420048000086
:10127A00758901D28CD2A990004DE0FCA3E0FDEC67
:0D128A00F58CAF058F8AC28DC2B9D2AF229C
:1010C800900042E0FEA3E0FF7C007D0A120F5190E1
:1010D8000000ECF0A3EDF0C39408EC648094804029
:1010E80009900000E4F0A37405F0900044E0FEA32A
:1010F800E0FF7C007D0A120F51900002ECF0A3ED96
:10110800F0C39408EC648094804009900002E4F0F5
:10111800A37407F0900043E02403F0900042E03409
:1011280000F0900045E02407F0900044E03400F01F
:011138002294
:1011A200900000E0FEA3E0FF90004FE0B5063AA3F6
:1011B200E0B50735900002E0FEA3E0FF900051E0A9
:1011C200B50626A3E0B50721900005E004F07006FD
:1011D200900004E004F0900000E4F0A37408F0A38F
:0A11E200E4F0A37408F01210C82214
:1011EC00E4FDFCED25E0FFEC33FE74062FF5827474
:1011FC00003EF58374FFF0A3F074222FF582740087
:10120C003EF58374FFF0A3F00DBD00010CED640FEF
:03121C004C70D043
:01121F0022AC
:10105600E4900040F0A3F0900040E0FEA3E0FFC360
:10106600940CEE648094805058EF25E0FFEE33FE3A
:1010760074062FF58274003EF583E0FCA3E0FD9034
:10108600004FE0B5042BA3E0B5052674222FF582A8
:1010960074003EF583E0FEA3E0FF900051E0B50644
:1010A60010A3E0B5070B900004E4F0A304F01211BE
:1010B600EC900041E004F0709E900040E004F08067
:0210C600962270
:10070F0012000312127A1210C8900046E07004A370
:10071F00E0640A601090004AE0B40A09900046E4D1
:10072F00F0A3740AF0900046E07004A3E0640C603C
:10073F001090004AE0B40C09900046E4F0A3740C4A
:10074F00F0900046E07004A3E0640F601090004A40
:10075F00E0B40F09900046E4F0A3740FF090004648
:10076F00E07004A3E06407601090004AE0B407094A
:10077F00900046E4F0A37407F090004FE0FEA3E072
:10078F00FFA3E0FCA3E0FD120FDC900000E0FEA34E
:10079F00E0FFA3E0FCA3E0FD120FDC1211A290001A
:1007AF0004E0FEA3E0FFEE6003020718EF14B40E9F
:1007BF000040030207189007D375F003A4C58325E3
:1007CF00F0C583730207FD02080A02082A020866B1
:1007DF000208BA02090E0209620209B6020A0A02E7
:1007EF000A5E020AB2020B06020B5A020BAE90000F
:1007FF0006E0FEA3E0FF9000228051900006E0FE8D
:10080F00A3E0FF900022E0FCA3E0FD120FDC9000BC
:10081F0008E0FEA3E0FF9000248031900006E0FE88
:10082F00A3E0FF900022E0FCA3E0FD120FDC90009C
:10083F0008E0FEA3E0FF900024E0FCA3E0FD120F10
:10084F00DC90000AE0FEA3E0FF900026E0FCA3E0AE
:10085F00FD120FDC020718E490004BF0A3F090009C
:10086F004BE0FEA3E0FFC39405EE64809480400349
:10087F00020718EF25E0FDEE33FC74062DF58274A8
:10088F00003CF583E0FEA3E0FF74222DF582740097
:10089F003CF583E0FCA3E0FD120FDC90004CE0047C
:1008AF00F070BB90004BE004F080B3E490004BF08D
:1008BF00A3F090004BE0FEA3E0FFC39406EE64802C
:1008CF0094804003020718EF25E0FDEE33FC740619
:1008DF002DF58274003CF583E0FEA3E0FF74222D1A
:1008EF00F58274003CF583E0FCA3E0FD120FDC9071
:1008FF00004CE004F070BB90004BE004F080B3E4D8
:10090F0090004BF0A3F090004BE0FEA3E0FFC394E8
:10091F0007EE648094804003020718EF25E0FDEE98
:10092F0033FC74062DF58274003CF583E0FEA3E0E2
:10093F00FF74222DF58274003CF583E0FCA3E0FDEB
:10094F00120FDC90004CE004F070BB90004BE00401
:10095F00F080B3E490004BF0A3F090004BE0FEA3C7
:10096F00E0FFC39408EE648094804003020718EF01
:10097F0025E0FDEE33FC74062DF58274003CF58303
:10098F00E0FEA3E0FF74222DF58274003CF583E0B6
:10099F00FCA3E0FD120FDC90004CE004F070BB9064
:1009AF00004BE004F080B3E490004BF0A3F0900014
:1009BF004BE0FEA3E0FFC39409EE648094804003F4
:1009CF00020718EF25E0FDEE33FC74062DF5827457
:1009DF00003CF583E0FEA3E0FF74222DF582740046
:1009EF003CF583E0FCA3E0FD120FDC90004CE0042B
:1009FF00F070BB90004BE004F080B3E490004BF03C
:100A0F00A3F090004BE0FEA3E0FFC3940AEE6480D6
:100A1F0094804003020718EF25E0FDEE33FC7406C7
:100A2F002DF58274003CF583E0FEA3E0FF74222DC8
:100A3F00F58274003CF583E0FCA3E0FD120FDC901F
:100A4F00004CE004F070BB90004BE004F080B3E486
:100A5F0090004BF0A3F090004BE0FEA3E0FFC39497
:100A6F000BEE648094804003020718EF25E0FDEE43
:100A7F0033FC74062DF58274003CF583E0FEA3E091
:100A8F00FF74222DF58274003CF583E0FCA3E0FD9A
:100A9F00120FDC90004CE004F070BB90004BE004B0
:100AAF00F080B3E490004BF0A3F090004BE0FEA376
:100ABF00E0FFC3940CEE648094804003020718EFAC
:100ACF0025E0FDEE33FC74062DF58274003CF583B2
:100ADF00E0FEA3E0FF74222DF58274003CF583E065
:100AEF00FCA3E0FD120FDC90004CE004F070BB9013
:100AFF00004BE004F080B3E490004BF0A3F09000C3
:100B0F004BE0FEA3E0FFC3940DEE6480948040039E
:100B1F00020718EF25E0FDEE33FC74062DF5827405
:100B2F00003CF583E0FEA3E0FF74222DF5827400F4
:100B3F003CF583E0FCA3E0FD120FDC90004CE004D9
:100B4F00F070BB90004BE004F080B3E490004BF0EA
:100B5F00A3F090004BE0FEA3E0FFC3940EEE648081
:100B6F0094804003020718EF25E0FDEE33FC740676
:100B7F002DF58274003CF583E0FEA3E0FF74222D77
:100B8F00F58274003CF583E0FCA3E0FD120FDC90CE
:100B9F00004CE004F070BB90004BE004F080B3E435
:100BAF0090004BF0A3F090004BE0FEA3E0FFC39446
:100BBF000FEE648094804003020718EF25E0FDEEEE
:100BCF0033FC74062DF58274003CF583E0FEA3E040
:100BDF00FF74222DF58274003CF583E0FCA3E0FD49
:100BEF00120FDC90004CE004F070BB90004BE0045F
:030BFF00F080B3D0
:100D7C00900046E0FEA3E0FFEE6003020E25EF2498
:100D8C00F9604F24FB602A24FD606B24056003028C
:100D9C000E25900050E024FFF090004FE034FFF05F
:100DAC00D3A3E094FF90004FE06480947F506A805E
:100DBC0062900050E004F0700690004FE004F0C325
:100DCC00900050E0940890004FE06480948040497B
:100DDC00801F900052E004F07006900051E004F087
:100DEC00C3900052E09408900051E06480948040DD
:100DFC0028E4F0A3F022900052E024FFF090005180
:100E0C00E034FFF0D3A3E094FF900051E0648094B1
:0A0E1C007F5006E4F0A37407F022F3
:10000E00900004E0FEA3E0FFEE6003020706EF148B
:10001E00B40E00400302070690003475F003A4C529
:10002E008325F0C5837302005E02006102007E022A
:10003E0001070201900202190202A202032B02031F
:10004E00B402043D0204C602054F0205D802066141
:10005E00020104900006E0FFA3E0A3CFF0A3EFF0AF
:10006E00900022E0FFA3E0A3CFF0A3EFF00206E79B
:10007E00900053E4F0A37402F0900053E0FCA3E070
:10008E00FDD394FFEC6480947F406BED2401FEE47D
:10009E003CA3F0A3CEF0ED25E0FDEC33FC74062D71
:1000AE00F58274003CF583E0FAA3E0FB900056E085
:1000BE0025E0FF900055E033FE74062FF5827400A4
:1000CE003EF583EAF0A3EBF074222DF58274003C2A
:1000DE00F583E0FCA3E0FD74222FF58274003EF55B
:1000EE0083ECF0A3EDF0900054E024FFF090005369
:1000FE00E034FFF080830206E7900053E4F0A3742F
:10010E0003F0900053E0FCA3E0FDD394FFEC648079
:10011E00947F406BED2401FEE43CA3F0A3CEF0ED02
:10012E0025E0FDEC33FC74062DF58274003CF5835E
:10013E00E0FAA3E0FB900056E025E0FF900055E0CA
:10014E0033FE74062FF58274003EF583EAF0A3EBBE
:10015E00F074222DF58274003CF583E0FCA3E0FDE3
:10016E0074222FF58274003EF583ECF0A3EDF0902F
:10017E000054E024FFF0900053E034FFF08083023F
:10018E0006E7900053E4F0A37404F0900053E0FCF3
:10019E00A3E0FDD394FFEC6480947F406BED2401CB
:1001AE00FEE43CA3F0A3CEF0ED25E0FDEC33FC74B1
:1001BE00062DF58274003CF583E0FAA3E0FB900077
:1001CE0056E025E0FF900055E033FE74062FF582D1
:1001DE0074003EF583EAF0A3EBF074222DF58274E1
:1001EE00003CF583E0FCA3E0FD74222FF582740041
:1001FE003EF583ECF0A3EDF0900054E024FFF09078
:10020E000053E034FFF080830206E7900053E4F0E1
:10021E00A37405F0900053E0FCA3E0FDD394FFEC33
:10022E006480947F406BED2401FEE43CA3F0A3CEEA
:10023E00F0ED25E0FDEC33FC74062DF58274003CE8
:10024E00F583E0FAA3E0FB900056E025E0FF900076
:10025E0055E033FE74062FF58274003EF583EAF006
:10026E00A3EBF074222DF58274003CF583E0FCA321
:10027E00E0FD74222FF58274003EF583ECF0A3EDC1
:10028E00F0900054E024FFF0900053E034FFF08033
:10029E00830206E7900053E4F0A37406F090005337
:1002AE00E0FCA3E0FDD394FFEC6480947F406BED03
:1002BE002401FEE43CA3F0A3CEF0ED25E0FDEC33EB
:1002CE00FC74062DF58274003CF583E0FAA3E0FB86
:1002DE00900056E025E0FF900055E033FE74062FA7
:1002EE00F58274003EF583EAF0A3EBF074222DF54F
:1002FE008274003CF583E0FCA3E0FD74222FF582AE
:10030E0074003EF583ECF0A3EDF0900054E024FF72
:10031E00F0900053E034FFF080830206E790005324
:10032E00E4F0A37407F0900053E0FCA3E0FDD39437
:10033E00FFEC6480947F406BED2401FEE43CA3F05F
:10034E00A3CEF0ED25E0FDEC33FC74062DF58274A2
:10035E00003CF583E0FAA3E0FB900056E025E0FFB9
:10036E00900055E033FE74062FF58274003EF5833F
:10037E00EAF0A3EBF074222DF58274003CF583E0D5
:10038E00FCA3E0FD74222FF58274003EF583ECF0A1
:10039E00A3EDF0900054E024FFF0900053E034FF02
:1003AE00F080830206E7900053E4F0A37408F09007
:1003BE000053E0FCA3E0FDD394FFEC6480947F40F7
:1003CE006BED2401FEE43CA3F0A3CEF0ED25E0FDA1
:1003DE00EC33FC74062DF58274003CF583E0FAA331
:1003EE00E0FB900056E025E0FF900055E033FE74F0
:1003FE00062FF58274003EF583EAF0A3EBF074222B
:10040E002DF58274003CF583E0FCA3E0FD74222FF1
:10041E00F58274003EF583ECF0A3EDF0900054E00D
:10042E0024FFF0900053E034FFF080830206E79043
:10043E000053E4F0A37409F0900053E0FCA3E0FD38
:10044E00D394FFEC6480947F406BED2401FEE43C7A
:10045E00A3F0A3CEF0ED25E0FDEC33FC74062DF5F4
:10046E008274003CF583E0FAA3E0FB900056E02591
:10047E00E0FF900055E033FE74062FF58274003EC7
:10048E00F583EAF0A3EBF074222DF58274003CF5AF
:10049E0083E0FCA3E0FD74222FF58274003EF58309
:1004AE00ECF0A3EDF0900054E024FFF0900053E048
:1004BE0034FFF080830206E7900053E4F0A3740A41
:1004CE00F0900053E0FCA3E0FDD394FFEC64809425
:1004DE007F406BED2401FEE43CA3F0A3CEF0ED25AE
:1004EE00E0FDEC33FC74062DF58274003CF583E0E0
:1004FE00FAA3E0FB900056E025E0FF900055E033B4
:10050E00FE74062FF58274003EF583EAF0A3EBF03D
:10051E0074222DF58274003CF583E0FCA3E0FD749B
:10052E00222FF58274003EF583ECF0A3EDF09000DF
:10053E0054E024FFF0900053E034FFF08083020675
:10054E00E7900053E4F0A3740BF0900053E0FCA38B
:10055E00E0FDD394FFEC6480947F406BED2401FEAC
:10056E00E43CA3F0A3CEF0ED25E0FDEC33FC7406E5
:10057E002DF58274003CF583E0FAA3E0FB90005663
:10058E00E025E0FF900055E033FE74062FF58274EF
:10059E00003EF583EAF0A3EBF074222DF582740091
:1005AE003CF583E0FCA3E0FD74222FF58274003E3F
:1005BE00F583ECF0A3EDF0900054E024FFF09000F2
:1005CE0053E034FFF080830206E7900053E4F0A37B
:1005DE00740CF0900053E0FCA3E0FDD394FFEC64A8
:1005EE0080947F406BED2401FEE43CA3F0A3CEF09B
:1005FE00ED25E0FDEC33FC74062DF58274003CF520
:10060E0083E0FAA3E0FB900056E025E0FF90005552
:10061E00E033FE74062FF58274003EF583EAF0A3F4
:10062E00EBF074222DF58274003CF583E0FCA3E020
:10063E00FD74222FF58274003EF583ECF0A3EDF0ED
:10064E00900054E024FFF0900053E034FFF08083DC
:10065E000206E7900053E4F0A3740DF0900053E00F
:10066E00FCA3E0FDD394FFEC6480947F406BED24FB
:10067E0001FEE43CA3F0A3CEF0ED25E0FDEC33FC4F
:10068E0074062DF58274003CF583E0FAA3E0FB902E
:10069E000056E025E0FF900055E033FE74062FF57E
:1006AE008274003EF583EAF0A3EBF074222DF582FE
:1006BE0074003CF583E0FCA3E0FD74222FF58274F8
:1006CE00003EF583ECF0A3EDF0900054E024FFF033
:1006DE00900053E034FFF0808390004FE0FFA3E0E2
:1006EE00900006CFF0A3EFF0900051E0FFA3E09052
:1006FE000022CFF0A3EFF022900004E4F0A304F068
:01070E0022C8
:03000B00020E26BC
:100E2600C0E0C0F0C083C082C0D075D000C000C092
:100E360001C002C003C004C005C006C00790003F41
:100E4600E004F0700690003EE004F0900049E004F3
:100E5600F07006900048E004F090004DE0FCA3E03E
:100E6600FDECF58CAF058F8AC3900049E09496900F
:100E76000048E09400400F120C0290004AEFF090F8
:100E86000048E4F0A3F0C390003FE0949090003E49
:100E9600E09401400FE4F0A3F0B2A012000E120D90
:100EA6007C121056D007D006D005D004D003D0024D
:0F0EB600D001D000D0D0D082D083D0F0D0E032A5
:10129700EF1FAC0670011E4C600A7D027CC7DCFEA6
:0412A700DDFC80ECFE
:0112AB002220
:02122000AD0718
:10122200E4FB74807E00A803088006CEA2E713CEFA
:1012320013D8F8FFEDF582EF558224FF92B4D2B6AF
:0B124200C2B60BEBB408DBD2B5C2B59E
:01124D00227E
:10124E00900058EEF0A3EFF0AF0512122090005868
:10125E00A3E0FF7480A807088002C313D8FCF4F53E
:0C126E00807F017E001212977580FF2225
:05000300C2B5C2B622E7
:100FDC0090005AEFF0EC7063EDB40800505D900F88
:100FEC00F1F82828730210090210110210190210CE
:100FFC002102102902103102103902104190005BBD
:10100C007401F0803690005B7402F0802E90005BCF
:10101C007404F0802690005B7408F0801E90005BD6
:10102C007410F0801690005B7420F0800E90005BC2
:10103C007440F0800690005B7480F090005AE0FFE2
:0A104C007E00A3E0FD7C0002124EBE
:100C0200E4900057F07590FFC2972093167F14FE70
:100C12001212973093FD7F147E00121297900057A4
:100C22007401F02092177F147E001212973093FD08
:100C32007F147E001212979000577402F0209117D1
:100C42007F147E001212973093FD7F147E001212E1
:100C5200979000577403F02090177F147E001212B1
:100C6200973093FD7F147E00121297900057740400
:100C7200F07590FFC2962093177F147E0012129790
:100C82003093FD7F147E001212979000577405F086
:100C92002092177F147E001212973093FD7F147EEC
:100CA200001212979000577406F020910690005798
:100CB2007407F02090177F147E001212973093FD74
:100CC2007F147E001212979000577408F07590FFFF
:100CD200C2952093177F147E001212973093FD7FE6
:100CE200147E001212979000577409F02092069019
:100CF2000057740AF02091177F147E001212973069
:100D020093FD7F147E00121297900057740BF0200F
:100D12009006900057740CF07590FFC294209317C0
:100D22007F147E001212973093FD7F147E00121200
:100D320097900057740DF02092177F147E001212C4
:100D4200973093FD7F147E00121297900057740E15
:100D5200F0209106900057740FF02090177F147EB8
:100D6200001212973093FD7F147E001212979000AA
:090D7200577410F0900057E0FFE7
:010D7B002255
:03000000020EC528
:0C0EC500787FE4F6D8FD758107020F0C61
:100F5100C2D5EC30E709B2D5E4C39DFDE49CFCEEBB
:100F610030E715B2D5E4C39FFFE49EFE120F87C39D
:100F7100E49DFDE49CFC8003120F8730D507C3E498
:060F81009FFFE49EFE222A
:100ED10002070FE493A3F8E493A34003F68001F221
:100EE10008DFF48029E493A3F85407240CC8C33322
:100EF100C4540F4420C8834004F456800146F6DFF1
:100F0100E4800B0102040810204080901139E47E36
:100F1100019360BCA3FF543F30E509541FFEE493E5
:100F2100A360010ECF54C025E060A840B8E493A3AC
:100F3100FAE493A3F8E493A3C8C582C8CAC583CAD7
:100F4100F0A3C8C582C8CAC583CADFE9DEE780BE8F
:0111A100004D
:100F8700BC000BBE0029EF8DF084FFADF022E4CC4E
:100F9700F875F008EF2FFFEE33FEEC33FCEE9DEC17
:100FA700984005FCEE9DFE0FD5F0E9E4CEFD22ED5D
:100FB700F8F5F0EE8420D21CFEADF075F008EF2FA7
:100FC700FFED33FD4007985006D5F0F222C398FD98
:050FD7000FD5F0EA2235
:00000001FF
