:1008EA0014082020202048656C6C6F2C776F726C7E
:0608FA0064202020200014
:1008B6001208D1E4F51C7408251CF8E6FF12090B92
:0B08C600051CE51CC3941040ED80FEF3
:10088C00C2A58F807F017E0012089DD2A77F057EB6
:01089C00005B
:10089D00D3EF9400EE9400400F7DC77C01DCFEDDAC
:0808AD00FAEF1F70EB1E80E85A
:0108B5002220
:0A090100C2A7C2A612088CC2A722EA
:0A090B00C2A7D2A612088CC2A722D0
:1008D1007F381209017F0C1209017F061209017F7D
:0908E100011209017F80020901E6
:03000000020800F3
:0C080000787FE4F6D8FD75811C020847E3
:10080C000208B6E493A3F8E493A34003F68001F244
:10081C0008DFF48029E493A3F85407240CC8C333ED
:10082C00C4540F4420C8834004F456800146F6DFBC
:10083C00E4800B01020408102040809008EAE47E5A
:10084C00019360BCA3FF543F30E509541FFEE493B1
:10085C00A360010ECF54C025E060A840B8E493A378
:10086C00FAE493A3F8E493A3C8C582C8CAC583CAA3
:10087C00F0A3C8C582C8CAC583CADFE9DEE780BE5B
:0109000000F6
:00000001FF
